:020000040800F2
:10000000F8F4002045010008F7100008AF100008C0
:10001000F51000088D0100082919000800000000F3
:10002000000000000000000000000000931600081F
:100030008F01000800000000DB150008951600087D
:100040005F0100085F0100085F0100085F01000810
:100050005F0100085F0100085F0100085F01000800
:100060005F0100085F0100085F0100085F010008F0
:100070005F0100085F0100085F0100085F010008E0
:100080005F0100085F0100085F0100085F010008D0
:100090005F0100085F0100085F0100085F010008C0
:1000A0005F0100085F0100085F0100085F010008B0
:1000B0005F0100085F0100085F0100085F010008A0
:1000C0005F0100085F0100085F0100085F01000890
:1000D0005F0100085F0100085F0100085F01000880
:1000E0005F0100085F0100085F0100085F01000870
:1000F0005F0100085F0100085F0100085F01000860
:100100005F0100085F0100085F0100085F0100084F
:100110005F0100085F0100085F0100085F0100083F
:100120005F0100085F0100085F0100085F0100082F
:10013000DFF80CD000F018F80048004795190008C7
:10014000F8F400200648804706480047FEE7FEE72F
:10015000FEE7FEE7FEE7FEE7FEE7FEE7FEE7FEE777
:100160000D17000831010008064C074D06E0E06855
:1001700040F0010394E8070098471034AC42F6D3EE
:10018000FFF7DAFF84260108A4260108FEE770477E
:100190002DE9F04789460746102100F0DFF80025D9
:1001A0004FF0030825E000BF19F805405FF000009C
:1001B000B8EB941F01D1032102E0A10900D0042172
:1001C000A206401C0901120EC6B2B8EB921F02D162
:1001D00041F0030103E0900901D041F004019006D1
:1001E000040E384600F0C5F8761CF0B20428DFD3C0
:1001F0006D1C3869C11700EB917079698010484314
:10020000A842D1DC1221384600F0A8F8642000F0A2
:10021000C7F83846BDE8F04700F0B6B810B5044658
:1002200001202060022060600020A0600320E060C8
:100230004FF4207020614FF4C070606100F0D2F87C
:1002400010B14FF0FF3010BD204600F075F80121CD
:10025000204600F083F83721204600F08AF800217C
:10026000204600F086F80021204600F077F8CF21E4
:10027000204600F07EF80821204600F07AF806219A
:10028000204600F06BF8C721204600F072F8CC2120
:10029000204600F06EF82821204600F06AF804217C
:1002A000204600F05BF8204600F06EF83021204632
:1002B00000F054F83C21204600F05BF84121204634
:1002C00000F04CF80021204600F053F85021204661
:1002D00000F044F87721204600F04BF860212046DA
:1002E00000F03CF82221204600F043F8612120462E
:1002F00000F034F80221204600F03BF8802120462F
:1003000000F037F80121204600F033F88021204624
:1003100000F02FF88221204600F020F81E21204610
:1003200000F027F8E521204600F018F803212046C8
:1003300000F01FF8002010BD10B504460068002131
:1003400000F040F8C82000F02BF80121206800F0F0
:1003500039F8BDE81040C82000F022B810B50C46AE
:100360004068002100F02EF82046BDE8104000F063
:1003700051B810B50C464068012100F023F8204622
:10038000BDE8104000F046B810B5044602E0642015
:1003900000F006F8E06800F005F80028F7D010BD7E
:1003A00000F052B8064A10B502EBC00152F8300016
:1003B000898889B200F04AF9012800D0002010BDD8
:1003C0003C000020064B012903EBC00253F830002B
:1003D000526891B202D0002200F03DB90122FBE741
:1003E0003C0000200A480949D0E90023C1E9002364
:1003F000D0E90223C1E90223D0E90423C1E904239F
:10040000D0E90620C1E90620002070473C0000200A
:100410000400002031B50A4C0022A08881B2206877
:1004200000F019F94FF47A7301226946054800F08B
:10043000ABFCA088012281B2206800F00CF938BD25
:100440003C0000205C00002031B500F009F9009C60
:100450000546601C00D0641C00F002F9401BA0425D
:10046000FAD338BD2DE9F84FDFF8B8A100220AF120
:10047000040B144601274FF00F090BF1040E00BFC7
:100480000B6807FA04F52B40AB4274D1DFF898C132
:100490004E68A6EB0C0866452BD00DDC032E34D03D
:1004A00005DC36B3012E19D0022E2FD11BE0112E00
:1004B00016D0122E2AD119E0B8F5881F19D006DC03
:1004C000B8F5803F15D0B8F5801F1FD111E0B8F501
:1004D000001F0ED0B8F5041F18D10AE0CA6815E055
:1004E000CA68121D12E0CA6808320FE0CA680C32EE
:1004F0000CE08A682AB1012A4FF0080203D0456156
:1005000004E0042202E0056100E00022FF2B01D894
:10051000064601E000F104064FEA840501D9A5F181
:100520002005D6F800C009FA05F82CEA080C02FAF2
:1005300005F54CEA050CC6F800C04D68ED006AD51B
:100540003A4DAE6946F00106AE61AD6924F003068E
:1005500005F001050095364D06EB050CDCF808505A
:10056000A6074FEA167809FA08F6B543314EB042AD
:1005700002D100261AE04EE02F4EB04201D10126F2
:1005800014E02E4EB04201D102260FE02C4EB042B4
:1005900001D103260AE02B4EB04201D1042605E02A
:1005A000294EB04201D1052600E0062606FA08F6DB
:1005B0002E43CCF808604D68DAF80060ED0355462C
:1005C00001D51E4300E09E432E604D68AD0305D566
:1005D000DBF800601E43CBF8006004E0DBF800505D
:1005E0009D43CBF800504D68DEF80060ED02754683
:1005F00001D51E4300E09E432E604D68AD0205D537
:10060000084D0C352E681E432E6004E0054E0C3656
:1006100035689D433560641C102CFFF431AFBDE894
:10062000F88F00000004014000001110001002408B
:100630000000014000080140000C01400010014092
:100640000014014000180140001C0140806808406F
:1006500000D0012070470AB1016170470904FBE72F
:1006600001480068704700002C0000200248016823
:10067000491C0160704700002C000020074810B59D
:10068000016841F010010160032000F07FF80020B4
:1006900000F006F800F018F8002010BD002002401D
:1006A00010B5044607484FF47A710068B0FBF1F0CA
:1006B00000F02BFC00222146501E00F047F80020DD
:1006C00010BD0000000000201E4808B5816941F0FF
:1006D00001018161806900F001000090032000F0B9
:1006E00055F8002211466FF00B0000F02FF80022A1
:1006F00011466FF00A0000F029F8002211466FF051
:10070000090000F023F800221146501F00F01EF8E7
:1007100000221146101F00F019F800221146901E09
:1007200000F014F800221146501E00F00FF80648A1
:10073000416821F0E0614160416841F00071416031
:1007400008BD00000010024000000140F0B40E4B54
:100750001B680C46C3F30223C3F10705042D00D91F
:100760000425191D072901D2002300E0DB1E012604
:1007700006FA05F1491E214099409E40761E16401A
:100780003143F0BC00F0B8BC0CED00E0064900F0CD
:10079000070208684FF6FF03184040EA0220034AA8
:1007A00010430860704700000CED00E00000FA05FF
:1007B0002DE9F047DFF83C8105460E46D8F80000E9
:1007C00000F00700B0420CD2D8F8001021F0070169
:1007D0003143C8F80010D8F8000000F00700B0421C
:1007E00063D12878444C800705D56068A96820F05B
:1007F000F000084360602878C00745D06868012889
:1008000016D02168022816D0890700294DDA6168C0
:1008100021F0030101436160FFF722FF6968074689
:1008200041F2883001290FD00229814619D027E0F2
:1008300021688903E9E78901E7E700BFFFF710FFB7
:10084000C11B494501D918E081466068C0F38100A9
:100850000128F3D118E000BFFFF702FFC11B494593
:100860000BD86068C0F381000228F5D10CE000BF0E
:10087000FFF7F6FEC11B494502D90320BDE8F0870A
:10088000606810F00C0FF3D1D8F80010404601F06A
:100890000701B1420BD9016821F007013143016022
:1008A000006800F00700B04201D00120E6E7287898
:1008B000400705D56068E96820F4E060084360609F
:1008C0002878000706D56068296920F4605040EA5E
:1008D000C100606000F03CF86168084AC1F3031190
:1008E000515CC840064908600020FFF7D9FE00208F
:1008F000C4E700000020024000100240B41B0008C2
:10090000000000200148006870470000000000203F
:100910000448054900684968044AC1F30221515C52
:10092000C84070470000002000100240C41B0008AF
:100930000448054900684968044AC1F3C221515C72
:10094000C84070470000002000100240C41B00088F
:1009500010B512A385B00FCB8DE80F0013A0144B78
:10096000006804905A68134802F00C0104290FD063
:1009700008290DD1C2F38344D2031DF8041009D510
:100980005A6804ABC2F340429A5CB0FBF2F04843B1
:1009900005B010BD08484843FAE70000020304050B
:1009A000060708090A0B0C0D0E0F101001020000BB
:1009B0000010024000127A0000093D002DE9F84FB6
:1009C00004460078B94DC00748D06868C0F381007C
:1009D000012807D06868C0F38100022809D168683F
:1009E000C00306D52868800338D5606800286FD01A
:1009F00034E06068B0F5803F0BD010B1B0F5A02FA7
:100A000011D0286820F480302860286820F48020E5
:100A100002E0286840F480302860606888B1FFF701
:100A20001FFE064609E0286840F480202860F0E7B1
:100A3000FFF716FE801B642875D828688003F7D559
:100A40000CE0FFF70DFE064605E000BFFFF708FECD
:100A5000801B6428F0D828688003F7D42078944E4F
:100A600080074FF001094FF000083BD5686810F08F
:100A70000C0F07D06868C0F38100022809D16868AC
:100A8000C00306D42868800714D5206901281FD127
:100A900010E02069B0B1C6F80090FFF7E1FD07460D
:100AA00005E000BFFFF7DCFDC01B0228C4D82868A2
:100AB0008007F7D52868616920F0F80040EAC10096
:100AC00028600FE0C6F80080FFF7CAFD074606E081
:100AD000E9E000BFFFF7C4FDC01B022823D8286847
:100AE0008007F7D4207800072CD57248A169D9B1C6
:100AF000C0F80090FFF7B4FD074604E0FFF7B0FD33
:100B0000C01B02280FD8686A8007F7D56A484FF4DF
:100B1000FA510068B0FBF1F0009000BF0098411E50
:100B20000091FAD20EE080E0C0F80080FFF798FD57
:100B3000074604E0FFF794FDC01B022875D8686AD9
:100B40008007F7D42078400760D5E8690027C00007
:100B500008D4E86940F08050E861E869012700F0B6
:100B60008050009055480168C90513D40168834638
:100B700041F480710160FFF773FD824606E000BF1B
:100B8000FFF76EFDA0EB0A0064284ED8DBF80000EA
:100B9000C005F5D5E06801280AD008B1052813D0B2
:100BA000286A20F001002862286A20F0040002E090
:100BB000286A40F001002862E06841F2883B98B161
:100BC000FFF74EFD82460BE0286A40F004002862E1
:100BD000EEE700BFFFF744FDA0EB0A0159455AD8E4
:100BE000286A8007F6D50CE0FFF73AFD824605E05B
:100BF000FFF736FDA0EB0A0159454CD8286A80075B
:100C0000F6D41FB1E86920F08050E861E06988B34C
:100C10006968C1F38101022945D00228C6F86080C5
:100C200004D0FFF71DFD044638E034E0FFF718FD5F
:100C3000074604E0FFF714FDC01B02282BD82868E4
:100C40008001F7D4206AB0F5803F05D16868A168BB
:100C500020F4003008436860D4E90801084369685B
:100C600021F4741108436860C6F86090FFF7F8FC3F
:100C7000044606E015E000BFFFF7F2FC001B022867
:100C800009D828688001F7D50BE000BFFFF7E8FC22
:100C9000001B022802D90320BDE8F88F28688001D4
:100CA000F4D40020F8E70120F6E70000001002402D
:100CB00000004242800442420000002000700040D8
:100CC00070B5040005D00025A56294F8510010B15C
:100CD00004E0012070BD204600F034F8022084F8C2
:100CE00051002068016821F040010160D4E9010150
:100CF0000843D4E903121143084361690843218B77
:100D000001F400710843E1690843216A0843A16ABC
:100D1000084321680860A069042101EA1040616A63
:100D20000843216848602168E06A08612068C16959
:100D300021F40061C1616565012084F85100002043
:100D400070BD000000B500680C4985B0884212D122
:100D50000B48816941F4805181618069694600F4E2
:100D600080500490A0200090022001900320039066
:100D70000448FFF777FB05B000BD000000300140DC
:100D800000100240000801402DE9F84F044690F899
:100D900050000026994617460D4601280DD04FF009
:100DA000010B84F850B0FFF75BFC804694F85100CB
:100DB000B246012804D0022694E00220BDE8F88F54
:100DC000002D7BD0002F79D0032084F85100C4F887
:100DD00054A02563A786E786C4F838A0A4F83CA0F1
:100DE000A4F83EA0C4F844A0C4F840A0A068B0F5A0
:100DF000004F04D12068016841F4804101602068FF
:100E00000168490603D4016841F040010160E068CF
:100E1000B0F5006F606804D030B3E08E012823D0B5
:100E20003EE010B1E08E01281AD135F8021B20688F
:100E300005E020688168890706D535F8021BC16086
:100E4000E08E401EE0860BE0B9F1000F34D0B9F11E
:100E5000FF3F05D0FFF704FCA0EB080149452BD26A
:100E6000E08E0028E5D11EE0216815F8010B08731B
:100E700006E020688168890706D515F8011B017313
:100E8000E08E401EE0860BE0B9F1000F14D0B9F1FE
:100E9000FF3F05D0FFF7E4FBA0EB080149450BD26B
:100EA000E08E0028E5D14B46012202212046CDF8F4
:100EB000008000F0A3FB10B1032613E011E04246CE
:100EC0004946204600F08AFB18B1012620206065C3
:100ED00008E0A06818B92068C16880680090606D5B
:100EE00000B1012684F851B084F850A0304665E77F
:100EF0004FF0E0210428086903D020F004000861C5
:100F0000704740F00400FAE7704710B5401EB0F19A
:100F1000807F01D3012010BD4FF0E02460610F21DC
:100F2000601700F0E9F80020A06107202061002090
:100F300010BD10B5FFF7E8FF10BD70B5040004D078
:100F400094F83900002510B106E0012070BD84F846
:100F50003850204600F022F8242084F83900206818
:100F6000C16821F40051C160204600F0F3FB206805
:100F7000016921F4904101612068416921F02A0151
:100F800041612068C16841F40051C160E5632020DF
:100F900084F8390084F83A00002070BD10B500686C
:100FA000114986B088421DD11048816941F48041C1
:100FB000816180690E4C00F4804004904FF4007011
:100FC0000090022001900320039069462046FFF71D
:100FD00049FA00212015CDE9000102916946204619
:100FE000FFF740FA06B010BD003801400010024083
:100FF000000801402DE9F843044690F839001F46E7
:1010000016460D46202850D1A5B19EB194F838005F
:1010100001284AD0012084F838004FF00008C4F8B5
:101020003C80212084F83900FFF71AFBA684814612
:10103000E68426E00120BDE8F883E08C401EE084D1
:10104000A0684B46B0F5805F4FF000024FF0800182
:101050002046009703D000F035FCE8B90DE000F021
:1010600031FCC8B928882168C0F3080048602069AD
:1010700008B16D1C05E0AD1C03E0216815F8010BFB
:101080004860E08C0028D8D14B4600224021204601
:10109000009700F017FC08B10320CCE7202084F86B
:1010A000390084F838800020C5E70220C3E7FEE756
:1010B0000F4810B50D4901604FF4827141604FF443
:1010C000004181600021C1604FF400720161C0E9FC
:1010D00005123022C0E90721416281620A21C16202
:1010E000FFF7EEFD002800D0FEE710BD0030014004
:1010F0005C000020FEE770470907090E002806DAA9
:1011000000F00F0000F1E02080F8141D704700F19E
:10111000E02080F800147047F0B50F460646002521
:101120000CE0002406E03B4622462946304600F00B
:1011300009F8641CB068A042F5DC6D1C7068A84218
:10114000EFDCF0BDF0B500292DDB45688D422ADDCE
:10115000002A28DB8468944225DDCE1701EB9676C1
:1011600026F003068E1BC0247600F440E3B1032B67
:1011700025D0042B17D102FB0513DF17056803EBFD
:10118000977305EBA3052B78A3432B704468006885
:1011900002FB0411CA1701EB927100EBA100402180
:1011A000F1400B430370F0BD02FB05110068CA1744
:1011B00001EB927100EBA1000178A14309E002FB71
:1011C00005110068CA1701EB927100EBA1000178CC
:1011D00021430170F0BD00002DE9FF4F93460D9DA6
:1011E000A888410700D0012101EBD000203BE9880D
:1011F0005843484329680E18002727E000244FF081
:10120000800A0BEB0708DFF8509017E0E01704EBBB
:10121000507020F007003178221A2AFA02F00142B9
:1012200006D00198424601190E9B009800F01AF969
:1012300004EA0900072800D1761C641CA888A04293
:10124000E4DC2879400700D0761C7F1CE888B8428F
:10125000D4DCBDE8FF8F0000070000802DE9FF4FC0
:101260005D420026022092468B4600EB450400BFFB
:101270000AEB0607ABEB050189463A460D9B009841
:1012800000F0F0F80BEB05013A4688460D9B0098FC
:1012900000F0E8F8AAEB060741463A460D9B009895
:1012A00000F0E0F83A4649460D9B009800F0DAF865
:1012B0002046B44208DC761C00EB4604641CF54270
:1012C00002D1A84200DC0020A84203DD6D1C04EB23
:1012D0004504641C002DCBDDBDE8FF8F2DE9FF4FD9
:1012E00081B05D4200270220DDF838B000EB4504F4
:1012F00003985B46C21902989146411B8A460198A1
:1013000000F0B0F802984A4646195B46314601980B
:1013100000F0A8F803983146C21B90465B4601983E
:1013200000F0A0F8424651465B46019800F09AF85A
:101330000120A0EB45039A464A463146CDF800B05D
:10134000019800F045F8534642463146CDF800B0CA
:10135000019800F03DF82046BC4208DC7F1C00EB01
:101360004704641CFD4202D1A84200DC0020A842D0
:1013700003DD6D1C04EB4504641C002DB8DD05B0D5
:10138000BDE8F08F2DE9F8438146DDE908088B427E
:1013900001DD0C4600E01C4600DD19460D4690427A
:1013A00001DD164600E0064600DD0246A2EB060718
:1013B0000AE000BF07F10103324621464846CDF856
:1013C000008000F0E4F8641CAC42F3DDBDE8F88373
:1013D0002DE9F041164680460C46CF18069D06E0E2
:1013E0002B4632462146404600F03CF8641CA7429A
:1013F000F6DCBDE8F0812DE9FF4F81B00C460E9F71
:101400001E461546181B00D5A01B81464FF0FF3124
:10141000B44201DA012000E008460090781B002861
:1014200000DDE81B8246BD4200DA01218B4609EB54
:101430000A0810E02A4621460F9B019800F012F896
:10144000BAEB480F02DC0098D0440444B9EB480FD3
:1014500001DBC8445D44B44201D0BD42EAD105B0CD
:10146000BDE8F08F30B4C468ACB1012C1ED0022CA2
:101470002AD0032C35D1002933DB85688D4230DD3D
:10148000002A2EDB446894422BDD14466A1A21465A
:1014900030BCFFF757BE002923DB44688C4220DDB7
:1014A000002A1EDB846894421BDDF1E7002918DB6B
:1014B00084688C4215DD002A13DB4568954210DDF7
:1014C0000C46A91A2246E3E700290ADB45688D424B
:1014D00007DD002A05DB8468944202DD691AA21A3E
:1014E000D6E730BC70472DE9F8478246DDE90905AB
:1014F0008B4201DD0F4600E01F4601DD1C4600E087
:101500000C46904201DD164600E0064600DD02462C
:101510009146A4EB070808F10103324639465046CC
:101520000095FFF755FF08F101034A46394650463A
:101530000095FFF74DFFA9EB060808F101033246BD
:1015400039465046009500F022F808F10103324672
:1015500021465046009500F01AF8BDE8F8872DE9BD
:10156000FC439046DDE9096781461C460D4609E0CB
:10157000424629464846CDE90067FFF72DFEB08870
:10158000641C05442378002BF2D1BDE8FC832DE9CF
:10159000F0410E4680461446D718069D06E02B46BD
:1015A000224631464046FFF75DFF641CA742F6DC49
:1015B000BDE8F08110B50024C4600160510707D078
:1015C000D11702EB517121F00701511A521A08325A
:1015D000C0E9012310BDC1607047704738B50B46A4
:1015E000009204460022802100F008F8002804D070
:1015F000606D40F020006065032038BD2DE9F041AA
:101600001D4617460E460446DDF8188035E0681C76
:1016100033D02DB1FFF724F8A0EB0800A8422CD35B
:101620002068416821F0E00141606068B0F5827F88
:101630000BD1A068B0F5004F02D0B0F5806F04D197
:101640002068016821F040010160A06AB0F5005FE8
:101650000AD1206801684DF6FF72114001602068D0
:10166000016841F400510160012084F8510000201C
:1016700084F850000320BDE8F0812068806836EAD5
:10168000000004D00020B842C1D10020F3E70120BF
:10169000F9E7704710B5FEF7E9FFBDE81040FFF726
:1016A00048BC30B58FB001210804CDE900100024FA
:1016B000029402250491CDE907504FF4E0100990FF
:1016C0006846FFF77BF900B1FEE70F20CDE90A0578
:1016D0004FF48060CDE90C4002210AA80E94FFF778
:1016E00067F800B1FEE7FFF70DF94FF47A71B0FB30
:1016F000F1F0FFF70AFC0420FFF7FAFB0022114685
:10170000501EFFF723F80FB030BD00000D480168F0
:1017100041F00101016041680B4A114041600168DC
:101720000A4A11400160016821F48021016041688A
:1017300021F4FE0141604FF41F0181600449C003A0
:1017400008607047001002400000FFF8FFFFF6FE3F
:1017500008ED00E02DE9F041044600680169E26807
:1017600021F44051114301612169A0680843616976
:1017700008432168CA6841F20C639A430243CA6075
:1017800020684169A26921F44071114341614C49CB
:1017900020686425322688423CD1FFF7C9F800EB67
:1017A000C00101EB001061688900B0FBF1F7FFF7A1
:1017B000BFF800EBC00101EB00106168B046890082
:1017C000B0FBF1F0B0FBF5F06FF01801484307EB08
:1017D000800106EB0110B0FBF5F000F0F006FFF71A
:1017E000A7F800EBC00101EB001061688900B0FBB5
:1017F000F1F0B0FBF5F006EB0016FFF799F800EBFF
:10180000C00101EB001061688900B0FBF1F7FFF740
:101810008FF83BE0FFF77CF800EBC00101EB001014
:1018200061688900B0FBF1F7FFF772F800EBC001C7
:1018300001EB00106168B0468900B0FBF1F0B0FB2D
:10184000F5F06FF01801484307EB800106EB01103B
:10185000B0FBF5F000F0F006FFF75AF800EBC0011E
:1018600001EB001061688900B0FBF1F0B0FBF5F00E
:1018700006EB0016FFF74CF800EBC00101EB00107F
:1018800061688900B0FBF1F7FFF742F800EBC00197
:1018900001EB001061688900B0FBF1F0B0FBF5F0DE
:1018A0006FF01801484307EB800108EB0110B0FB13
:1018B000F5F0216800F00F0030448860BDE8F08149
:1018C000003801402DE9F041984617460E4604467F
:1018D000069D1DE0681C1BD02DB1FEF7C1FEA0EBDC
:1018E0000800A84214D92068C16821F4D071C160F1
:1018F0002068416921F001014161202084F839000C
:1019000084F83A00002084F838000320BDE8F08114
:101910002068006836EA000004D00020B842D9D020
:101920000020F3E70120F9E7FEE70000014A024941
:1019300000F013B87D1900083000002002E008C84C
:10194000121F08C1002AFAD170477047002001E039
:1019500001C1121F002AFBD170472DE9F041164644
:101960000F460446002503E03946B047641C6D1C51
:1019700020780028F8D12846BDE8F08113B54FF64D
:10198000FF73012269460248FFF734FB00981CBD33
:10199000B4000020F0B591B04FF4704000F0D4F8DE
:1019A0000546FEF76BFEFFF77CFE5348816941F068
:1019B000040181618069514E00F004000090002212
:1019C00016213046FEF747FE16200C9001200D90A0
:1019D00002200F900CA93046FEF744FD0024082099
:1019E000CDE90C040CA930460E94FEF73BFD454AA8
:1019F000434810604FF4E130C2E901040C20D46088
:101A0000C2E9044094611046D461FFF796FA00B130
:101A1000FEE7FFF74DFB02A8FEF700FC30B13AA04D
:101A2000FFF784FF11B04FF0FF30F0BDDDE9062372
:101A3000294608A8FFF7BEFD032108A8FFF76CFBA5
:101A4000012108A8FFF7C7FD4FF48C76CDE90064AB
:101A5000B4235022142108A8FFF745FDCDE9006406
:101A6000B4235022142108A8FFF7C5FCCDE9006477
:101A700014235022B42108A8FFF7BDFC04274FF41B
:101A8000B4735022C82108A8CDE90067FFF77AFC9B
:101A900003263C23A0224FF4967108A80096FFF776
:101AA000DDFB1E23D2225A2108A80097FFF716FC5F
:101AB0001E20CDE90007F3010622002108A8FFF748
:101AC00061FC174FCDE9007616A30A22642108A80D
:101AD000FFF745FDCDE9007416A32822642108A86C
:101AE000FFF73DFD294602A8FEF752FB154902A863
:101AF000FEF74EFBFEE70000001002400008014028
:101B000000380140B4000020652D506170657220DE
:101B1000696E6974206661696C65640A0000000082
:101B20002400002048656C6C6F20776F726C642114
:101B300000000000652D50617065722044656D6F76
:101B400000000000CC1B0008F0B50B30154D20F054
:101B500007010024144A0FE003688B420BD38B4229
:101B600005D95E1A43184768C3E9006700E0436877
:101B7000136002C004E0021D10680028ECD120466A
:101B8000002802D1286808B10020F0BD064A0748A5
:101B90001060074A121A22F00702C0E9002401204F
:101BA0002860D7E73800002034000020FC00002027
:101BB000F8F2002000000000000000000102030411
:101BC000060708090000000001020304FFFFFFFFF1
:101BD000FFFFFFFFFFFFFFFFFFFFFFFFFFFFFFFF15
:101BE000FFFFFFFFFFFFFFFFFFFFFFFFFFFFFFFF05
:101BF000FFFFFFFFFFFFFFFFFFFFFFFFFFFFFFFFF5
:101C0000FFFFFFFD5FFFFFFFFFFFFFFFFFFFFFFF86
:101C1000FFFFFFFFFFFFFFFFFFFFFFFFFFFFFFFFD4
:101C2000FFFFFFFFFFFFFFFFFFFFFFFFFFFFFFFFC4
:101C3000FFFFFFFFFFFFFFFFFFFFFFFFFFFFFFFFB4
:101C4000FFFFFFFF5FFFFFFFFFFFFFFFFFFFFFFF44
:101C5000FFFFFFFFFFFFFFFFFFFFFFFFFFFFFFFF94
:101C6000FFFFFFFFFFFFFFFFFFFFFFFFFFFFFFFF84
:101C7000FFFFFFFFFFFFFFFFFFFFFFFFFFFFFFFF74
:101C8000FFFFFFFFFFFFFFFFFFFFFFFFFFFFFFFF64
:101C9000FFFFFFFFFFFFFFFFFFFFFFFFFFFFFFFF54
:101CA000FFFFFFFD5FFFFFFFFFFFFFFFFFFFFFFFE6
:101CB000FFFFFFFFFFFFFFFFFFFFFFFFFFFFFFFF34
:101CC000FFFFFFFFFFFFFFFFFFFFFFFFFFFFFFFF24
:101CD000FFFFFFFFFFFFFFFFFFFFFFFFFFFFFFFF14
:101CE000FFFFFFFD5FFFFFFFFFFFFFFFFFFFFFFFA6
:101CF000FFFFFFFFFFFFFFFFFFFFFFFFFFFFFFFFF4
:101D0000FFFFFFFFFFFFFFFFFFFFFFFFFFFFFFFFE3
:101D1000FFFFFFFFFFFFFFFFFFFFFFFFFFFFFFFFD3
:101D2000FFFFFFFFFFFFFFFFFFFFFFFFFFFFFFFFC3
:101D3000FFFFFFFFFFFFFFFFFFFFFFFFFFFFFFFFB3
:101D4000FFFFFFFD5FFFFFFFFFFFFFFFFFFFFFFF45
:101D5000FFFFFFFFFFFFFFFFFFFFFFFFFFFFFFFF93
:101D6000FFFFFFFFFFFFFFFFFFFFFFFFFFFFFFFF83
:101D7000FFFFFFFFFFFFFFFFFFFFFFFFFFFFFFFF73
:101D8000FFFFFFFD5FFFFFFFFFFFFFFFFFFFFFFF05
:101D9000FFFFFFFFFFFFFFFFFFFFFFFFFFFFFFFF53
:101DA000FFFFFFFFFFFFFFFFFFFFFFFFFFFFFFFF43
:101DB000FFFFFFFFFFFFFFFFFFFFFFFFFFFFFFFF33
:101DC000FFFFFFFFFFFFFFFFFFFFFFFFFFFFFFFF23
:101DD000FFFFFFFFFFFFFFFFFFFFFFFFFFFFFFFF13
:101DE000FFFFFFFD5FFFFFFFFFFFFFFFFFFFFFFFA5
:101DF000FFFFFFFFFFFFFFFFFFFFFFFFFFFFFFFFF3
:101E0000FFFFFFFFFFFFFFFFFFFFFFFFFFFFFFFFE2
:101E1000FFFFFFFFFFFFFFFFFFFFFFFFFFFFFFFFD2
:101E2000FFFFFFFD5FFFFFFFFFFFFFFFFFFFFFFF64
:101E3000FFFFFFFFFFFFFFFFFFFFFFFFFFFFFFFFB2
:101E4000FFFFFFFFFFFFFFFFFFFFFFFFFFFFFFFFA2
:101E5000FFFFFFFFFFFFFFFFFFFFFFFFFFFFFFFF92
:101E6000FFFFFFFFFFFFFFFFFFFFFFFFFFFFFFFF82
:101E7000FFFFFFFFFFFFFFFFFFFFFFFFFFFFFFFF72
:101E8000FFFFFFFD5FFFFFFFFFFFFFFFFFFFFFFF04
:101E9000FFFFFFFFFFFFFFFFFFFFFFFFFFFFFFFF52
:101EA000FFFFFFFFFFFFFFFFFFFFFFFFFFFFFFFF42
:101EB000FFFFFFFFFFFFFFFFFFFFFFFFFFFFFFFF32
:101EC000FFFFFFFD5FFFFFFFFFFFFFFFFFFFFFFFC4
:101ED000FFFFFFFFFFFFFFFFFFFFFFFFFFFFFFFF12
:101EE000FFFFFFFFFFFFFFFFFFFFFFFFFFFFFFFF02
:101EF000FFFFFFFFFFFFFFFFFFFFFFFFFFFFFFFFF2
:101F0000FFFFFFFFFFFFFFFFFFFFFFFFFFFFFFFFE1
:101F1000FFFFFFFFFFFFFFFFFFFFFFFFFFFFFFFFD1
:101F2000FFFFFFFD5FFFFFFFFFFFFFFFFFFFFFFF63
:101F3000FFFFFFFFFFFFFFFFFFFFFFFFFFFFFFFFB1
:101F4000FFFFFFFFFFFFFFFFFFFFFFFFFFFFFFFFA1
:101F5000FFFFFFFFFFFFFFFFFFFFFFFFFFFFFFFF91
:101F6000FFFFFFFD5FFFFFFFFFFFFFFFFFFFFFFF23
:101F7000FFFFFFFFFFFFFFFFFFFFFFFFFFFFFFFF71
:101F8000FFFFFFFFFFFFFFFFFFFFFFFFFFFFFFFF61
:101F9000FFFFFFFFFFFFFFFFFFFFFFFFFFFFFFFF51
:101FA000FFFFFFFFFFFFFFFFFFFFFFFFFFFFFFFF41
:101FB000FFFFFFFFFFFFFFFFFFFFFFFFFFFFFFFF31
:101FC000FFFFFFFD5FFFFFFFFFFFFFFFFFFFFFFFC3
:101FD000FFFFFFFFFFFFFFFFFFFFFFFFFFFFFFFF11
:101FE000FFFFFFFFFFFFFFFFFFFFFFFFFFFFFFFF01
:101FF000FFFFFFFFFFFFFFFFFFFFFFFFFFFFFFFFF1
:10200000FFFFFFFD5FFFFFFFFFFFFFFFFFFFFFFF82
:10201000FFFFFFFFFFFFFFFFFFFFFFFFFFFFFFFFD0
:10202000FFFFFFFFFFFFFFFFFFFFFFFFFFFFFFFFC0
:10203000FFFFFFFFFFFFFFFFFFFFFFFFFFFFFFFFB0
:10204000FFFFFFFFFFFFFFFFFFFFFFFFFFFFFFFFA0
:10205000FFFFFFFFFFFFFFFFFFFFFFFFFFFFFFFF90
:10206000FFFFFFFD5FFFFFFFFFFFFFFFFFFFFFFF22
:10207000FFFFFFFFFFFFFFFFFFFFFFFFFFFFFFFF70
:10208000FFFFFFFFFFFFFFFFFFFFFFFFFFFFFFFF60
:10209000FFFFFFFFFFFFFFFFFFFFFFFFFFFFFFFF50
:1020A000FFFFFFFD5FFFFFFFFFFFFFFFFFFFFFFFE2
:1020B000FFFFFFFFFFFFFFFFFFFFFFFFFFFFFFFF30
:1020C000FFFFFFFFFFFFFFFFFFFFFFFFFFFFFFFF20
:1020D000FFFFFFFFFFFFFFFFFFFFFFFFFFFFFFFF10
:1020E000FFFFFFFFFFFFFFFFFFFFFFFFFFFFFFFF00
:1020F000FFFFFFFFFFFFFFFFFFFFFFFFFFFFFFFFF0
:10210000FFFFFFFD5FFFFFFFFFFFFFFFFFFFFFFF81
:10211000FFFFFFFFFFFFFFFFFFFFFFFFFFFFFFFFCF
:10212000FFFFFFFFFFFFFFFFFFFFFFFFFFFFFFFFBF
:10213000FFFFFFFFFFFFFFFFFFFFFFFFFFFFFFFFAF
:10214000FFFFFFFD5FFFFFFFFFFFFFFFFFFFFFFF41
:10215000FFFFFFFFFFFFFFFFFFFFFFFFFFFFFFFF8F
:10216000FFFFFFFFFFFFFFFFFFFFFFFFFFFFFFFF7F
:10217000FFFFFFFFFFFFFFFFFFFFFFFFFFFFFFFF6F
:10218000FFFFFFFFFFFFFFFFFFFFFFFFFFFFFFFF5F
:10219000FFFFFFFFFFFFFFFFFFFFFFFFFFFFFFFF4F
:1021A000FFFFFFFD5FFFFFFFFFFFFFFFFFFFFFFFE1
:1021B000FFFFFFFFFFFFFFFFFFFFFFFFFFFFFFFF2F
:1021C000FFFFFFFFFFFFFFFFFFFFFFFFFFFFFFFF1F
:1021D000FFFFFFFFFFFFFFFFFFFFFFFFFFFFFFFF0F
:1021E000FFFFFFFD5FFFFFFFFFFFFFFFFFFFFFFFA1
:1021F000FFFFFFFFFFFFFFFFFFFFFFFFFFFFFFFFEF
:10220000FFFFFFFFFFFFFFFFFFFFFFFFFFFFFFFFDE
:10221000FFFFFFFFFFFFFFFFFFFFFFFFFFFFFFFFCE
:10222000FFFFFFFFFFFFFFFFFFFFFFFFFFFFFFFFBE
:10223000FFFFFFFFFFFFFFFFFFFFFFFFFFFFFFFFAE
:10224000FFFFFFFD5FFFFFFFFFFFFFFFFFFFFFFF40
:10225000FFFFFFFFFFFFFFFFFFFFFFFFFFFFFFFF8E
:10226000FFFFFFFFFFFFFFFFFFFFFFFFFFFFFFFF7E
:10227000FFFFFFFFFFFFFFFFFFFFFFFFFFFFFFFF6E
:10228000FFFFFFFD5FFFFFFFFFFFC000000000003A
:10229000000000000000000000000000000000003E
:1022A000000000000000003FFFFFFFFFFFFFFFFFF7
:1022B000FFFFFFFFFFFFFFFFFFFF57FFFFFFFFFFD6
:1022C000FFFFFFFFFFFFFFFFFFFFFFFFFFFFFFFF1E
:1022D000FFFFFFFFFFFFFFFFFFFFFFFFFFFFFFFF0E
:1022E000FFFFFFFD5FFFFFFFFFFFFFFFFFFFFFFFA0
:1022F000FFFFFFFFFFFFFFFFFFFFFFFFFFFFFFFFEE
:10230000FFFFFFFFFFFFFFFFFFFFFFFFFFFFFFFFDD
:10231000FFFFFFFFFFFFFFFFFFFFFFFFFFFFFFFFCD
:10232000FFFFFFFD5FFFFFFFFFFC0000000000005C
:10233000000000000000000000000000000000009D
:10234000000000000000000FFFFFFFFFFFFFFFFF86
:10235000FFFFFFFFFFFFFFFFFFFD55FFFFFFFFFF39
:10236000FFFFFFFFFFFFFFFFFFFFFFFFFFFFFFFF7D
:10237000FFFFFFFFFFFFFFFFFFFFFFFFFFFFFFFF6D
:10238000FFFFFFFD5FFFFFFFFFFFFFFFFFFFFFFFFF
:10239000FFFFFFFFFFFFFFFFFFFFFFFFFFFFFFFF4D
:1023A000FFFFFFFFFFFFFFFFFFFFFFFFFFFFFFFF3D
:1023B000FFFFFFFFFFFFFFFFFFFFFFFFFFFFFFFF2D
:1023C000FFFFFFFD5FFFFFFFFFFC000000000000BC
:1023D00000000000000000000000000000000000FD
:1023E0000000000000000003FFFFFFFFFFFFFFFFF2
:1023F000FFFFFFFFFFFFFFFFFFFD55FFFFFFFFFF99
:10240000FFFFFFFFFFFFFFFFFFFFFFFFFFFFFFFFDC
:10241000FFFFFFFFFFFFFFFFFFFFFFFFFFFFFFFFCC
:10242000FFFFFFFD5FFFFFFFFFFFFFFFFFFFFFFF5E
:10243000FFFFFFFFFFFFFFFFFFFFFFFFFFFFFFFFAC
:10244000FFFFFFFFFFFFFFFFFFFFFFFFFFFFFFFF9C
:10245000FFFFFFFFFFFFFFFFFFFFFFFFFFFFFFFF8C
:10246000FFFFFFFD5FFFFFFFFFF000000000000027
:10247000000000000000000000000000000000005C
:102480000000000000000000FFFFFFFFFFFFFFFF54
:10249000FFFFFFFFFFFFFFFFFFFD55FFFFFFFFFFF8
:1024A000FFFFFFFFFFFFFFFFFFFFFFFFFFFFFFFF3C
:1024B000FFFFFFFFFFFFFFFFFFFFFFFFFFFFFFFF2C
:1024C000FFFFFFFD5FFFFFFFFFFFFFFFFFFFFFFFBE
:1024D000FFFFFFFFFFFFFFFFFFFFFFFFFFFFFFFF0C
:1024E000FFFFFFFFFFFFFFFFFFFFFFFFFFFFFFFFFC
:1024F000FFFFFFFFFFFFFFFFFFFFFFFFFFFFFFFFEC
:10250000FFFFFFFD5FFFFFFFFFF000000000000086
:1025100000000000000000000000000000000000BB
:102520000000000000000000FFFFFFFFFFFFFFFFB3
:10253000FFFFFFFFFFFFFFFFFFFD55FFFFFFFFFF57
:10254000FFFFFFFFFFFFFFFFFFFFFFFFFFFFFFFF9B
:10255000FFFFFFFFFFFFFFFFFFFFFFFFFFFFFFFF8B
:10256000FFFFFFFD5FFFFFFFFFFFFFFFFFFFFFFF1D
:10257000FFFFFFFFFFFFFFFFFFFFFFFFFFFFFFFF6B
:10258000FFFFFFFFFFFFFFFFFFFFFFFFFFFFFFFF5B
:10259000FFFFFFFFFFFFFFFFFFFFFFFFFFFFFFFF4B
:1025A000FFFFFFFD5FFFFFFFFFF0000000000000E6
:1025B000000000000000000000000000000000001B
:1025C0000000000000000000FFFFFFFFFFFFFFFF13
:1025D000FFFFFFFFFFFFFFFFFFFD55FFFFFFFFFFB7
:1025E000FFFFFFFFFFFFFFFFFFFFFFFFFFFFFFFFFB
:1025F000FFFFFFFFFFFFFFFFFFFFFFFFFFFFFFFFEB
:10260000FFFFFFFD5FFFFFFFFFFFFFFFFFFFFFFF7C
:10261000FFFFFFFFFFFFFFFFFFFFFFFFFFFFFFFFCA
:10262000FFFFFFFFFFFFFFFFFFFFFFFFFFFFFFFFBA
:10263000FFFFFFFFFFFFFFFFFFFFFFFFFFFFFFFFAA
:10264000FFFFFFFD5FFFFFFFFFF000000000000045
:10265000000000000000000000000000000000007A
:102660000000000000000000FFFFFFFFFFFFFFFF72
:10267000FFFFFFFFFFFFFFFFFFFD55FFFFFFFFFF16
:10268000FFFFFFFFFFFFFFFFFFFFFFFFFFFFFFFF5A
:10269000FFFFFFFFFFFFFFFFFFFFFFFFFFFFFFFF4A
:1026A000FFFFFFFD5FFFFFFFFFFFFFFFFFFFFFFFDC
:1026B000FFFFFFFFFFFFFFFFFFFFFFFFFFFFFFFF2A
:1026C000FFFFFFFFFFFFFFFFFFFFFFFFFFFFFFFF1A
:1026D000FFFFFFFFFFFFFFFFFFFFFFFFFFFFFFFF0A
:1026E000FFFFFFFD5FFFFFFFFFF0000000000000A5
:1026F00000000000000000000000000000000000DA
:102700000000000000000000FFFFFFFFFFFFFFFFD1
:10271000FFFFFFFFFFFFFFFFFFFD55FFFFFFFFFF75
:10272000FFFFFFFFFFFFFFFFFFFFFFFFFFFFFFFFB9
:10273000FFFFFFFFFFFFFFFFFFFFFFFFFFFFFFFFA9
:10274000FFFFFFFD5FFFFFFFFFFFF000000FFFFF38
:10275000FFFFFFFFFFFFFFFFFFFFFFFFFFFFFFFF89
:10276000FFFFFFFFFFFFFFFFFFFFFFFFFFFFFFFF79
:10277000FFFFFFC0003FFFFFFFFFFFFFFFFFF00075
:1027800000FFFFFD5FFFFFFFFFF000000000000003
:102790000000000000000000000000000000000039
:1027A0000000000000000000FFFFFFFFFFFFFFFF31
:1027B000FFFFFFFFFFFFFFFFFFFD55FFFFFFFFFFD5
:1027C000FFFFFFFFFFFFFFFFFFFFFFFFFFFFFFFF19
:1027D000FFFFFFFFFFFFFFFFFFFFFFFFFFFFFFFF09
:1027E000FFFFFFFD5FFFFFFFFFFFC000000FFFFFC8
:1027F000FFFFFFFFFFFFFFFFFFFFFFFFFFFFFFFFE9
:10280000FFFFFFFFFFFFFFFFFFFFFFFFFFFFFFFFD8
:10281000FFFFFC00003FFFFFFFFFFFFFFFC00000C6
:1028200000FFFFFD5FFFFFFFFFF00000000FFFFF55
:10283000FFFFFFFFFFFFFFFFFFFFFFFFFFFFFFFFA8
:10284000FFFFFFFF00000000FFFFFFFFFFFFFFFF94
:10285000FFFFFFFFFFFFFFFFFFFD55FFFFFFFFFF34
:10286000FFFFFFFFFFFFFFFFFFFFFFFFFFFFFFFF78
:10287000FFFFFFFFFFFFFFFFFFFFFFFFFFFFFFFF68
:10288000FFFFFFFD5FFFFFFFFFFFC000000FFFFF27
:10289000FFFFFFFFFFFFFFFFFFFFFFFFFFFFFFFF48
:1028A000FFFFFFFFFFFFFFFFFFFFFFFFFFFFFFFF38
:1028B000FFFFC000003FFFFFFFFFFFFFF000000031
:1028C00000FFFFFD5FFFFFFFFFF000000003FFFFC1
:1028D000FFFFFFFFFF557FFFFF557FFFFFFFFFFF5C
:1028E000FFFFFFFC00000000FFFFFFFFFFFFFFFFF7
:1028F000FFFFFFFFD7FFFFFFFFFD55FFFFFFFFFDBE
:102900005FFFFFFFFFFFFFFFFFFFFFFFFFFFFFFF77
:10291000FFFFFFFFFFFFFFFFFFFFFFFFFFFFFFFFC7
:10292000FFFFFFFD5FFFFFFFFFFFC0000003FFFF92
:10293000FFFFFFFFFFFFFFFFFFFFFFFFFFFFFFFFA7
:10294000FFFFFFFFFFFFFFFFFFFFFFFFFFFFFFFF97
:10295000FFFC0000003FFFFFFFFFFFFF0000000043
:1029600000FFFFFD5FFFFFFFFFF000000000FFFF23
:10297000FFFFFFFFD55557FFF55557FFFFFFFFFF3F
:10298000FFFFFFF000000000FFFFFFFFFFFFFFFF62
:10299000FFFFFFFF557FFFFFFFFD55FFFFFFFFF527
:1029A00057FFFFFFFFFFFFFFFFFFFFFFFFFFFFFFDF
:1029B000FFFFFFFFFFFFFFFFFFFFFFFFFFFFFFFF27
:1029C000FFFFFFFD5FFFFFFFFFFFC0000003FFFFF2
:1029D000FFFFFFFFFFFFFFFFFFFFFFFFFFFFFFFF07
:1029E000FFFFFFFFFFFFFFFFFFFFFFFFFFFFFFFFF7
:1029F000FFF00000003FFFFFFFFFFFF000000000BE
:102A000000FFFFFD5FFFFFFFFFF0000000003FFF42
:102A1000FFFFFFFF555557FFD55555FFFFFFFFFF40
:102A2000FFFFFFC000000000FFFFFFFFFFFFFFFFF1
:102A3000FFFFFFFF555FFFFFFFFD55FFFFFFFFD5C6
:102A400057FFFFFFFFFFFFFFFFFFFFFFFFFFFFFF3E
:102A5000FFFFFFFFFFFFFFFFFFFFFFFFFFFFFFFF86
:102A6000FFFFFFFD5FFFFFFFFFFF00000003FFFF11
:102A7000FFFFFFFFFFFFFFFFFFFFFFFFFFFFFFFF66
:102A8000FFFFFFFFFFFFFFFFFFFFFFFFFFFFFFFF56
:102A9000FF000000003FFFFFFFFFFFC0000000003D
:102AA00000FFFFFD5FFFFFFFFFF00003C0000FFF0F
:102AB000FFFFFFFF55FF55FF557F55FFFFF57FFFD8
:102AC000FFFFFF00003C0000FFFFFFFFFFFFFFFFD5
:102AD000FFFFFFFF5557FFFFFFFD57FFFFFFFF55AC
:102AE00057FFFFFFFFFFFFFFFFFFFFFFFFFFFFFF9E
:102AF000FFFFFFFFFFFFFFFFFFFFFFFFFFFFFFFFE6
:102B0000FFFFFFFD5FFFFFFFFFFF00000000FFFF73
:102B1000FFFFFFFFFFFFFFFFFFFFFFFFFFFFFFFFC5
:102B2000FFFFFFFFFFFFFFFFFFFFFFFFFFFFFFFFB5
:102B3000F0000000003FFFFFFFFFFF00000000006B
:102B400000FFFFFD5FFFFFFFFFF00003F00000FF4D
:102B5000FFFFFFFD57FFD5FF55FFD57FFFF57FFF37
:102B6000FFFFF00000FC0000FFFFFFFFFFFFFFFF83
:102B7000FFFFFFFFD555FFFFFFFF5FFFFFFFFD5585
:102B80005FFFFFFFFFFFFFFFFFFFFFFFFFFFFFFFF5
:102B9000FFFFFFFFFFFFFFFFFFFFFFFFFFFFFFFF45
:102BA000FFFFFFFD5FFFFFFFFFFF00000000FFFFD3
:102BB000FFFFFFFFFFFFFFFFFFFFFFFFFFFFFFFF25
:102BC000FFFFFFFFFFFFFFFFFFFFFFFFFFFFFFFF15
:102BD00000000000003FFFFFFFFFFC000000FFFFC0
:102BE000FFFFFFFD5FFFFFFFFFF00003FC00003F62
:102BF000FFFFFFFD57FFD57F57FFF57FFFF57FFFF5
:102C0000FFFFC00003FC0000FFFFFFFFFFFFFFFF0F
:102C1000FFFFFFFFF5557FFFFFFFFFFFFFFFF555AC
:102C20007FFFFFFFFFFFFFFFFFFFFFFFFFFFFFFF34
:102C3000FFFFFFFFFFFFFFFFFFFFFFFFFFFFFFFFA4
:102C4000FFFFFFFD5FFFFFFFFFFC00030000FFFF32
:102C5000FFFFFFFFFFFFFFFFFFFFFFFFFFFFFFFF84
:102C6000FFFFFFFFFFFFFFFFFFFFFFFFFFFFFFFC77
:102C700000000000003FFFFFFFFFFC00003FFFFFE0
:102C8000FFFFFFFD5FFFFFFFFFF00003FF00000FEE
:102C9000FFFFFFFD57FFD57F57FFF57FFFF57FFF54
:102CA000FFFF00003FFC0000FFFFFFFFFFFFFFFFF3
:102CB000FFFFFFFFFD555FFFFFFFFFFFFFFFD55544
:102CC000FFFFFFFFFFFFFFFFFFFFFFFFFFFFFFFF14
:102CD000FFFFFFFFFFFFFFFFFFFFFFFFFFFFFFFF04
:102CE000FFFFFFFD5FFFFFFFFFFC000300003FFF52
:102CF000FFFFFFFFFFFFFFFFFFFFFFFFFFFFFF00E3
:102D000003FFFFFFFFFFFFFFFFFFFFFFFFFFFFFFCF
:102D100000000300003FFFFFFFFFF00000FFFFFF88
:102D2000FFFFFFFD5FFFFFFFFFF00003FFC0000399
:102D3000FFFFFFFD57FFD57F57FFF57FFFF57FFFB3
:102D4000FFFC0000FFFC0000FFFFFFFFFFFFFFFF95
:102D5000FFFFFFFFFF5557FFFFFFFFFFFFFF555727
:102D6000FFFFFFFFFFFFFFFFFFFFFFFFFFFFFFFF73
:102D7000FFFFFFFFFFFFFFFFFFFFFFFFFFFFFFFF63
:102D8000FFFFFFFD5FFFFFFFFFFC000300003FFFB1
:102D9000FFFFC0003FFFFFF00003FFFFFFFF000049
:102DA000000000003FFFFFFFFFFFFFFFFFFFFFFFEF
:102DB00000000F00003FFFFFFFFFC00003FFFFFF09
:102DC000FFFFFFFD5FFFFFFFFFF00003FFFC0000C0
:102DD0003FFFFFFD55FFD57F55FFD57FFFF57FFFF7
:102DE000FFC00003FFFC0000FFFFFFFFFFFFFFFF2E
:102DF000FFFFFFFFFFD557FFFFF5557FFFFD555F35
:102E0000FFFFFFFFFFFFFFFFFFFFFFFFFFFFFFFFD2
:102E1000FFFFFFFFFFFFFFFFFFFFFFFFFFFFFFFFC2
:102E2000FFFFFFFD5FFFFFFFFFF0000FC0003FFF50
:102E3000FFFFC0003FFFFFF00003FFFFFFF00000B7
:102E4000000000003FFFFFFFFFFFFFFFFFFFFFFF4E
:102E5000C000FF00003FFFFFFFFFC0000FFFFFFFAC
:102E6000FFFFFFFD5FFFFFFFFFF00003FFFF00001C
:102E70000FFFFFFF5555557F5555557F5555555FEC
:102E8000FF00000FFFFC0000FFFFFFFFFFFFFFFF41
:102E9000FFFFFFFFFFF555FFF5555555FFFD557F2A
:102EA000FFFFFFFFFFFFFFFFFFFFFFFFFF0000FF30
:102EB000FFFFFFFC000000003FFFFFFFFFFFFFFFE1
:102EC000FFFFFFFD5FFFFFFFFFF0000FC0003FFFB0
:102ED000FFFFC0003FFFFFF00003FFFFFFC0000047
:102EE000000000003FFFFFFFFFFFFFFFFFFFFFFFAE
:102EF000C00FFF00003FFFFFFFFFC0003FFFFFFFCD
:102F0000FFFFFFFD5FFFFFFFFFF00003FFFFC000BB
:102F100003FFFFFFD555557FD555557F5555555F57
:102F2000FC00003FFFFC0000FFFFFFFFFFFFFFFF73
:102F3000FFFFFFFFFFFD57FF555555555FFD55FF3F
:102F4000FFFFFFFFFFFFFFFFFFFFFFFFF000000F8E
:102F5000FFFFFFFC000000003FFFFFFFFFFFFFFF40
:102F6000FFFFFFFD5FFFFFFFFFF0000FC0000FFF3F
:102F7000FFFFC0003FFFFFF00003FFFFFF00000066
:102F8000000000003FFFFFFFFFFFFFFFFFFFFFFF0D
:102F9000C0FFFF00003FFFFFFFFF00003FFFFFFFFC
:102FA000FFFFFFFD5FFFFFFFFFF00003FFFFF000EB
:102FB00000FFFFFFFD55D57FFD55F57F5555555F4A
:102FC000F00000FFFFFC0000FFFFFFFFFFFFFFFF1F
:102FD000FFFFFFFFFFFF5FFD5555555555FF57FF9D
:102FE000FFFFFFFFFFFFFFFFFFFFFFFF00000003EA
:102FF000FFFFFFFC000000003FFFFFFFFFFFFFFFA0
:10300000FFFFFFFD5FFFFFFFFFF0003FC0000FFF6E
:10301000FFFFC0003FFFFFF00003FFFFFC000000C8
:10302000000000003FFFFFFFFFFFFFFFFFFFFFFF6C
:10303000F3FFFF00003FFFFFFFFF0000FFFFFFFF68
:10304000FFFFFFFD5FFFFFFFFFF00003FFFFFF003B
:10305000003FFFFFFFFFD5FFFFFFF57FFFF57FFF7D
:10306000C0000FFFFFFC0000FFFFFFFFFFFFFFFF9F
:10307000FFFFFFFFFFFFFFF555555555557FFFFF3C
:10308000FFFFFFFFFFFFFFFFFFFFFFFC000000004F
:10309000FFFFFFFC000000003FFFFFFFFFFFFFFFFF
:1030A000FFFFFFFD5FFFFFFFFFC0003FF0000FFFCE
:1030B000FFFFC0003FFFFFF00003FFFFFC0000FF29
:1030C000F00000003FFFFFFFFFFFFFFFFFFFFFFFDC
:1030D000FFFFFF00003FFFFFFFFF0000FFFFFFFFBC
:1030E000FFFFFFFD5FFFFFFFFFF00003FFFFFFC0DB
:1030F0000003FFFFFFFFD5FFFFFFD57FFFF57FFC3C
:1031000000003FFFFFFC0000FFFFFFFFFFFFFFFF8E
:10311000FFFFFFFFFFFFFFD555555555555FFFFFDB
:10312000FFFFFFFFFFFFFFFFFFFFFFF000000000BA
:103130003FFFFFFC000000003FFFFFFFFFFFFFFF1E
:10314000FFFFFFFD5FFFFFFFFFC0003FF00003FF39
:10315000FFFFC0003FFFFFF00003FFFFF00003FF91
:10316000FF0000FFFFFFFFFFFFFFFFFFFFFFFFFF6D
:10317000FFFFFF00003FFFFFFFFC0000FFFFFFFF1E
:10318000FFFFFFFD5FFFFFFFFFF00003FFFFFFF00A
:103190000000FFFFFFFF55FFFFFF55FFFFF57FF02A
:1031A0000000FFFFFFFC0000FFFFFFFFFFFFFFFF2E
:1031B000FFFFFFFFFFFFFF55555555555557FFFFC3
:1031C000FFFFFFFFFFFFFFFFFFFFFFF000FFFC001F
:1031D0003FFFFFFC0FFFFFFFFFFFFFFFFFFFFFFFB2
:1031E000FFFFFFFD5FFFFFFFFFC0003FF00003FF99
:1031F000FFFFC0003FFFFFF00003FFFFF0000FFFE5
:10320000FFC0003FFFFFFFFFFFFFFFFFFFFFFFFFCC
:10321000FFFFFF00003FFFFFFFFC0000FFC0003F7B
:10322000FFFFFFFD5FFFFFFFFFF00003FFFFFFFC5D
:1032300000003FFFFFFD57FFFFFD55FFFFF57FC07B
:103240000003FFFFFFFC0000FFFFFFFFFFFFFFFF8A
:10325000FFFFFFFFFFFFFD55555555555555FFFF26
:10326000FFFFFFFFFFFFFFFFFFFFFFF00FFFFF006C
:103270000FFFFFFC0FFFFFFFFFFFFFFFFFFFFFFF41
:10328000FFFFFFFD5FFFFFFFFF0000FFF00003FFF8
:10329000FFFFC0003FFFFFF00003FFFFC0003FFF44
:1032A000FFC0003FFFFFFFFFFFFFFFFFFFFFFFFF2C
:1032B000FFFFFF00003FFFFFFFFC0000C000000019
:1032C000FFFFFFFD5FFFFFFFFFF00003FFFFFFFFBA
:1032D000C0000FFF55555FFFD55557FFFFF57F0025
:1032E000003FFFFFFFFC0000FFFFFFFFFFFFFFFFAE
:1032F000FFFFFFFFFFFFF555555555555555FFFF8E
:10330000FFFFFFFFFFFFFFFFFFFFFFFC3FFFFFC0CF
:103310000FFFFFFC0FFFFFFFFFFFFFFFFFFFFFFFA0
:10332000FFFFFFFD5FFFFFFFFF0000FFFC0003FF4B
:10333000FFFFC0003FFFFFF00003FFFFC0003FFFA3
:10334000FFC0003FFFFFFFFFFFFFFFFFFFFFFFFF8B
:10335000FFFFFF00003FFFFFFFFC00000000000038
:103360000FFFFFFD5FFFFFFFFFF00003FFFFFFFF09
:10337000F00000FF55557FFFD5555FFFFFF570004A
:1033800000FFFFFFFFFC0000FFFFFFFFFFFFFFFF4D
:10339000FFFFFFFFFFFFF5555555555555557FFF6D
:1033A000FFFFFFFFFFFFFFFFFFFFFFFFFFFFFFC06C
:1033B0000FFFFFFC0FFFFFFFFFFFFFFFFFFFFFFF00
:1033C000FFFFFFFD5FFFFFFFFF0000FFFC0000FFAE
:1033D000FFFFC0003FFFFFF00003FFFFC0003FFF03
:1033E000FFF0003FFFFFFFFFFFFFFFFFFFFFFFFFBB
:1033F000FFFFFF00003FFFFFFFFC00000000000098
:1034000000FFFFFD5FFFFFFFFFF00003FFFFFFFF77
:10341000FC00003F555FFFFFD557FFFFFFFFC000D7
:1034200003FFFFFFFFFC0000FFFFFFFFFFFFFFFFA9
:10343000FFFFFFFFFFFFD5555555555555557FFFEC
:10344000FFFFFFFFFFFFFFFFFFFFFFFFFFFFFFC0CB
:103450000FFFFFFC0FFFFFFFFFFFFFFFFFFFFFFF5F
:10346000FFFFFFFD5FFFFFFFFF0000FFFC0000FF0D
:10347000FFFFC0003FFFFFF00003FFFFC0003FFF62
:10348000FFF0003FFFFFFFFFFFFFFFFFFFFFFFFF1A
:10349000FFFFFF00003FFFFFFFFC000000000000F7
:1034A000003FFFFD5FFFFFFFFFF00003FFFFFFFF97
:1034B000FF00000FFFFFFFFFFFFFFFFFFFFF000008
:1034C0000FFFFFFFFFFC0000FFFFFFFFFFFFFFFFFD
:1034D000FFFFFFFFFFFFD5555555555555555FFF6C
:1034E000FFFFFFFFFFFFFFFFFFFFFFFFFFFFFFF0FB
:1034F00003FFFFFC0FFFFFFFFFFFFFFFFFFFFFFFCB
:10350000FFFFFFFD5FFFFFFFFC0003FFFF0000FF69
:10351000FFFFC0003FFFFFF00003FFFFC0003FFFC1
:10352000FFF0003FFFFFFFFFFFFFFFFFFFFFFFFF79
:10353000FFFFFF00003FFFFFFFFC00000000000056
:10354000003FFFFD5FFFFFFFFFF00003FFFFFFFFF6
:10355000FFF00003FFFFFFFFFFFFFFFFFFFC000086
:10356000FFFFFFFFFFFC0000FFFFFFFFFFFFFFFF6C
:10357000FFFFFFFFFFFF55555555555555555FFF4B
:10358000FFFFFFFFFFFFFFFFFFFFFFFFFFFFFFF05A
:1035900003FFFFFC0FFFFFFFFFFFFFFFFFFFFFFF2A
:1035A000FFFFFFFD5FFFFFFFFC0003FFFF00003F89
:1035B000FFFFC0003FFFFFF00003FFFFC0003FFF21
:1035C000FFC0003FFFFFFFFFFFFFFFFFFFFFFFFF09
:1035D000FFFFFF00003FFFFFFFFC000000000000B6
:1035E000000FFFFD5FFFFFFFFFF00003FFFFFFFF86
:1035F000FFFC00003FFFFFFFFFFFFFFFFFC00003D6
:10360000FFFFFFFFFFFC0000FFFFFFFFFFFFFFFFCB
:10361000FFFFFFFFFFFF55555555555555555FFFAA
:10362000FFFFFFFFFFFFFFFFFFFFFFFFFFFFFFF0B9
:1036300003FFFFFC0FFFFFFFFFFFC0FFFFFF0003C3
:10364000FFFFFFFD5FFFFFFFFC0003FFFF00003FE8
:10365000FFFFC0003FFFFFF00003FFFFC0003FFF80
:10366000FFC0003FFFFFFFFFFFFFFFFFFFFFFFFF68
:10367000FFFFFF00003FFFFFFFFC000003FFFC0017
:103680000003FFFD5FFFFFFFFFF00003FFFFFFFFF1
:10369000FFFF00000FFFFFFFFFFFFFFFFF00000F16
:1036A000FFFFFFFFFFFC0000FFFFFFFFFFFFFFFF2B
:1036B000FFFFFFFFFFFF555555555555555557FF12
:1036C000FFFFFFFFFFFFFFFFFFFFFFFFFFFFFFF019
:1036D00003FFFFFC0FFFFFFFFFFC003FFFFC0000AC
:1036E0003FFFFFFD5FFFFFFFF0000FFFFF00003F08
:1036F000FFFFC0003FFFFFF00003FFFFF0000FFFE0
:10370000FF00003FFFFFFFFFFFFFFFFFFFFFFFFF87
:10371000FFFFFF00003FFFFFFFFC0000FFFFFFC0B7
:103720000003FFFD5FFFFFFFFFF00003FFFFFFFF50
:10373000FFFFC00003FFFFFFFFFFFFFFFC00003F94
:10374000FFFFFFFFFFFC0000FFFFFFFFFFFFFFFF8A
:10375000FFFD555557FF555555555555555557FF6F
:10376000555555FFFFFFFFFFFFFFFFFFFFFFFFF076
:103770000FFFFFFC0FFFFFFFFFF0000FFFF0000047
:103780000FFFFFFD5FFFFFFFF0000FFFFFC0000F07
:10379000FFFFC0003FFFFFF00003FFFFF00003FF4B
:1037A000FF00003FFFFFFFFFFFFFFFFFFFFFFFFFE7
:1037B000FFFFFF00003FFFFFFFFC0000FFFFFFF0E7
:1037C0000003FFFD5FFFFFFFFFF00003FFFFFFFFB0
:1037D000FFFFFC0000FFFFFFFFFFFFFFF00003FF04
:1037E000FFFFFFFFFFFC0000FFFFFFFFFFFFFFFFEA
:1037F000FFF5555555FF555555555555555557FDDB
:103800005555557FFFFFFFFFFFFFFFFFFFFFFFC085
:103810000FFFFFFC0FFFFFFFFFF03C03FFC03FFC6B
:1038200003FFFFFD5FFFFFFFF0000FFFFFC0000F72
:10383000FFFFC0003FFFFFF00003FFFFF00000FFAD
:10384000F00000FFFFFFFFFFFFFFFFFFFFFFFFFF95
:10385000FFFFFF00003FFFFFFFFC0000FFFFFFF046
:103860000003FFFD5FFFFFFFFFF00003FFFFFFFF0F
:10387000FFFFFF00003FFFFFFFFFFFFF00000FFF04
:10388000FFFFFFFFFFFC0000FFFFFFFFFFFFFFFF49
:10389000FFF5555555FF555555555555555557F542
:1038A0005555557FFFFFFFFFFFFFFFFFFFFFFFC0E5
:1038B0000FFFFFFC0FFFFFFFFFC0FF03FF00FFFF35
:1038C000C3FFFFFD5FFFFFFFC0000FFFFFC0000F42
:1038D000FFFFC0003FFFFFF00003FFFFFC00000000
:1038E000000003FFFFFFFFFFFFFFFFFFFFFFFFFFE2
:1038F000FFFFFF00003FFFFFFFFC0000FFFFFFFC9A
:103900000000FFFD5FFFFFFFFFF00003FFFFFFFF71
:10391000FFFFFFC00003FFFFFFFFFFFC00003FFFB2
:10392000FFFFFFFFFFFC0000FFFFFFFFFFFFFFFFA8
:10393000FFF5555555FF555555555555555557F5A1
:103940005555557FFFFFFFFFFFFFFFFFFFFFFFC044
:103950000FFFFFFC000003FFFFC3FFC0FF03FFFFDB
:10396000C0FFFFFD5FFFFFFFC0003FFFFFC0000F74
:10397000FFFFC0003FFFFFF00003FFFFFF0000005C
:10398000000003FFFFFFFFFFFFFFFFFFFFFFFFFF41
:10399000FFFFFF00003FFFFFFFFC0000FFFFFFFCF9
:1039A0000000FFFD5FFFFFFFFFF00003FFFFFFFFD1
:1039B000FFFFFFF00000FFFFFFFFFFF00000FFFF31
:1039C000FFFFFFFFFFFC0000FFFFFFFFFFFFFFFF08
:1039D000FFFD555555FF555555555555555557FDF1
:1039E000555555FFFFFFFFFFFFFFFFFFFFFFFF00E4
:1039F0003FFFFFFC0000003FFFC3FFC0FF0FFFFFC2
:103A0000F0FFFFFD5FFFFFFFC000000000000003AC
:103A1000FFFFC0003FFFFFF00003FFFFFC000000BE
:103A200000000FFFFFFFFFFFFFFFFFFFFFFFFFFF94
:103A3000FFFFFF00003FFFFFFFFC0000FFFFFFFC58
:103A40000000FFFD5FFFFFFFFFF00003FFFFFFFF30
:103A5000FFFFFFF000003FFFFFFFFFC00000FFFF80
:103A6000FFFFFFFFFFFC0000FFFFFFFFFFFFFFFF67
:103A7000FFFFFFFFFFFF555555555555555557FF4E
:103A8000FFFFFFFFFFFFFFFFFFFFFFFFFFFFFF0045
:103A90003FFFFFFC00000003FFC3FF00FF0FFFFF1D
:103AA000F0FFFFFD5FFFFFFFC0000000000000030C
:103AB000FFFFC0003FFFFFF00003FFFFFC0000001E
:103AC00000003FFFFFFFFFFFFFFFFFFFFFFFFFFFC4
:103AD000FFFFFF00003FFFFFFFFC0000FFFFFFFCB8
:103AE0000000FFFD5FFFFFFFFFF00003FFFFFFFF90
:103AF000FFFFFFC000000FFFFFFFFF0000003FFFC0
:103B0000FFFFFFFFFFFC0000FFFFFFFFFFFFFFFFC6
:103B1000FFFFFFFFFFFF555555555555555557FFAD
:103B2000FFFFFFFFFFFFFFFFFFFFFFFFFFFFFC00A7
:103B3000FFFFFFFC00000000FFF0FC03FF0FFFFF92
:103B4000F0FFFFFD5FFFFFFF00000000000000032B
:103B5000FFFFC0003FFFFFF00003FFFFF000000089
:103B60000003FFFFFFFFFFFFFFFFFFFFFFFFFFFF60
:103B7000FFFFFF00003FFFFFFFFC0000FFFFFFFC17
:103B80000000FFFD5FFFFFFFFFF00003FFFFFFFFEF
:103B9000FFFFFF00000000FFFFFFF00000000FFF2D
:103BA000FFFFFFFFFFFC0000FFFFFFFFFFFFFFFF26
:103BB000FFFFFFFFFFFF55555555555555555FFF05
:103BC000FFFFFFFFFFFFFFFFFFFFFFFFFFFFF00013
:103BD000FFFFFFFFFFFF00003FF00003FF0FFFFFAD
:103BE000FFFFFFFD5FFFFFFF00000000000000007F
:103BF000FFFFC0003FFFFFF00003FFFFC0003F00DA
:103C000003FFFFFFFFFFFFFFFFFFFFFFFFFFFFFFC0
:103C1000FFFFFF00003FFFFFFFFC0000FFFFFFFC76
:103C20000000FFFD5FFFFFFFFFF00003FFFFFFFF4E
:103C3000FFFFFC000000003FFFFFC000000003FF8B
:103C4000FFFFFFFFFFFC0000FFFFFFFFFFFFFFFF85
:103C5000FFFFFFFFFFFFD5555555555555555FFFE4
:103C6000FFFFFFFFFFFFFFFFFFFFFFFFFFFFF0036F
:103C7000FFFFFFFFFFFFFC003FFC000FFF0FFFFFF8
:103C8000FFFFFFFD5FFFFFFF0000000000000000DE
:103C9000FFFFC0003FFFFFC00003FFFFC000FFFFAA
:103CA000FFFFFFFFFFFFFFFFFFFFFFFFFFFFFFFF24
:103CB000FFFFFF00003FFFFFFFFC0000FFFFFFFCD6
:103CC0000003FFFD5FFFFFFFFFF00003FFFFFFFFAB
:103CD000FFFFC0000300000FFFFF00000C0000FF0B
:103CE000FFFFFFFFFFFC0000FFFFFFFFFFFFFFFFE5
:103CF000FFFFFFFFFFFFD5555555555555555FFF44
:103D0000FFFFFFFFFFFFFFFFFFFFFFFFFFFFC00FF2
:103D1000FFFFFFFFFFFFFFC00FFFC0FFFF0FFFFF11
:103D2000FFFFFFFD5FFFFFFC000000000000000040
:103D3000FFFFC0003FFFFFC00003FFFFC000FFFF09
:103D4000FFFFFFFFFFFFFFFFFFFFFFFFFFFFFFFF83
:103D5000FFFFFF00003FFFFFFFFF00003FFFFFF0FE
:103D60000003FFFD5FFFFFFFFFF00003FFFFFFFF0A
:103D7000FFFF00000FF00003FFFC0000FF00000F3A
:103D8000FFFFFFFFFFFC0000FFFFFFFFFFFFFFFF44
:103D9000FFFFFFFFFFFFF5555555555555557FFF63
:103DA000FFFFFFFFFFFFFFFFFFFFFFFFFFFF000F12
:103DB000FFFFFFFFFFFFFFF00FFFFFFFFF0FFFFF02
:103DC000FFFFFFFD5FFFFFFC0000000000000000A0
:103DD000FFFFC0000FFFFF000003FFFF0000FFFF19
:103DE000FFFFFFFFFFFFFFFFFFFFFFFFFFFFFFFFE3
:103DF000FFFFFF00003FFFFFFFFF00003FFFFFF05E
:103E00000003FFFD5FFFFFFFFFF00003FFFFFFFF69
:103E1000FFFC00003FFC00003FC00003FFC00003A8
:103E2000FFFFFFFFFFFC0000FFFFFFFFFFFFFFFFA3
:103E3000FFFFFFFFFFFFF5555555555555557FFFC2
:103E4000FFFFFFFFFFFFFFFFFFFFFFFFFFFC003F44
:103E5000FFFFFFFFFFFFFFF003FFFFFFFF0FFFFF6D
:103E6000FFFFFFFD5FFFFFFC0003FFFFFFFF000000
:103E70003FFFC0000FFFFC000003FFFF0000FFFF3B
:103E8000FFFFFFFFFFFFFFFFFFFFFFFFFFFFFFFF42
:103E9000FFFFFF00003FFFFFFFFF00000FFFFFC01D
:103EA0000003FFFD5FFFFFFFFFF00003FFFFFFFFC9
:103EB000FFF00000FFFF00000F00000FFFF0000008
:103EC000FFFFFFFFFFFC0000FFFFFFFFFFFFFFFF03
:103ED000FFFFFFFFFFFFFD55555555555555FFFF9A
:103EE000FFFFFFFFFFFFFFFFFFFFFFFFFFF000FFF0
:103EF000FFFFFFFFFFFFFFFC03FFFFFFFF0FFFFFC1
:103F0000FFFFFFFD5FFFFFFC0003FFFFFFFF00005F
:103F10003FFFC0000FFFF0000003FFFF00003FFF66
:103F2000FFFFFFFFFFFFFFFFFFFFFFFFFFFFFFFFA1
:103F30000000000000000003FFFFC00003FFFF00BF
:103F4000000FFFFD5FFFFFFFFFF00003FFFFFFFF1C
:103F5000FF00000FFFFFC0000000003FFFFF000058
:103F60003FFFFFFFFFFC0000FFFFFFFFFFFFFFFF22
:103F7000FFFFFFFFFFFFFD55555555555557FFFFF7
:103F8000FFFFFFFFFFFFFFFFFFFFFFFFFFC003FF7C
:103F9000FFFFFFFFFFFFFFFC03FFFFFFFF0FFFFF20
:103FA000FFFFFFFD5FFFFFF0000FFFFFFFFF0000BF
:103FB0003FFFF00000FF00000003FFFFC00003FF11
:103FC000FFFFFFFFFFFFFFFFFFFFFFFFFFFFFFFF01
:103FD0000000000000000003FFFFC00000FFFC0025
:103FE000000FFFFD5FFFFFFFFFF00003FFFFFFFF7C
:103FF000FC00003FFFFFF000000003FFFFFFC000D8
:1040000003FFFFFFFFFC0000FFFFFFFFFFFFFFFFBD
:10401000FFFFFFFFFFFFFF5555555555555FFFFF4C
:10402000FFFFFFFFFFFFFFFFFFFFFFFFFFC00FFFCF
:10403000FFFFFFFFFFFFFFFC03FFFFFFFF0FFFFF7F
:10404000FFFFFFFD5FFFFFF0000FFFFFFFFF00001E
:104050000FFFF000000000000003FFFFC0000000A1
:104060000000FFFFFFFFFFFFFFFFFFFFFFFFFFFF5E
:104070000000000000000003FFFFF000000000004F
:10408000003FFFFD5FFFFFFFFFF00003FFFFFFFFAB
:10409000F00000FFFFFFFF0000000FFFFFFFF00038
:1040A00000FFFFFFFFFC0000FFFFFFFFFFFFFFFF20
:1040B000FFFFFFFFFFFFFFD555555555557FFFFF0C
:1040C000FFFFFFFFFFFFFFFFFFFFFFFFFF003FFFBF
:1040D000FFFFFFFFFFFFFFFC03FFFFFFFF0FFFFFDF
:1040E000FFFFFFFD5FFFFFF0000FFFFFFFFFC000BE
:1040F0000FFFF0000000000F0003FFFFF0000000C2
:10410000000000FFFFFFFFFFFFFFFFFFFFFFFFFFBC
:104110000000000000000003FFFFFC0000000000A2
:1041200000FFFFFD5FFFFFFFFFF00003FFFFFFFF4A
:10413000C00003FFFFFFFFC000003FFFFFFFFC00C8
:10414000003FFFFFFFFC0000FFFFFFFFFFFFFFFF3F
:10415000FFFFFFFFFFFFFFF55555555555FFFFFFCB
:10416000FFFFFFFFFFFFFFFFFFFFFFFFFC003FFF21
:10417000FFFFFFFFFFFFFFFC03FFFFFFFF0FFFFF3E
:10418000FFFFFFFD5FFFFFC0000FFFFFFFFFC0004D
:104190000FFFFC000000003C0003FFFFF0000000E8
:1041A0000000000FFFFFFFFFFFFFFFFFFFFFFFFF0C
:1041B0000000000000000003FFFFFC000000000002
:1041C00003FFFFFD5FFFFFFFFFF00003FFFFFFFFA7
:1041D00000003FFFFFFFFFF00000FFFFFFFFFFC0F9
:1041E000000FFFFFFFFC0000FFFFFFFFFFFFFFFFCF
:1041F000FFFFFFFFFFFD57FF5555555557FF55FF73
:10420000FFFFFFFFFFFFFFFFFFFFFFFFF000FFFFCC
:10421000FFFFFFFFFFFFFFFC03FFFFFFFF0FFFFF9D
:10422000FFFFFFFD5FFFFFC0003FFFFFFFFFC0007C
:1042300003FFFF00000000FC0003FFFFFF00000081
:1042400000000003FFFFFFFFFFFFFFFFFFFFFFFF77
:104250000000000000000003FFFFFF00000000005E
:104260000FFFFFFD5FFFFFFFFFF00003FFFFFFF009
:104270000000FFFFFFFFFFFC0003FFFFFFFFFFF059
:104280000000FFFFFFFC0000FFFFFFFFFFFFFFFF3D
:10429000FFFFFFFFFFF557FFF55555557FFD557F94
:1042A000FFFFFFFFFFFFFFFFFFFFFFFFC003FFFF59
:1042B000FFFFFFFFFFFFFFF00FFFFFFFFF0FFFFFFD
:1042C000F0FFFFFD5FFFFFC0003FFFFFFFFFF000BB
:1042D00003FFFFC0000003FC0003FFFFFC00000021
:1042E00000000000FFFFFFFFFFFFFFFFFFFFFFFFDA
:1042F0000000000000000003FFFFFFF000000000CE
:104300003FFFFFFD5FFFFFFFFFF00003FFFFFFC068
:104310000003FFFFFFFFFFFFC03FFFFFFFFFFFFCAA
:1043200000003FFFFFFC0000FFFFFFFFFFFFFFFF5C
:10433000FFFFFFFFFFD557FFFF555557FFFD555FA7
:10434000FFFFFFFFFFFFFFFFFFFFFFFF000FFFFF6C
:10435000FFFFFFFFFFFFFFF00FFFFFFFFF0FFFFF5C
:10436000F0FFFFFD5FFFFF00003FFFFFFFFFF000DA
:1043700003FFFFF000000FFC0003FFFFF000000050
:1043800000000000FFFFFFFFFFFFFFFFFFFFFFFF39
:104390000000000000000003FFFFFFFF0000000F0F
:1043A000FFFFFFFD5FFFFFFFFFF00003FFFFFF00C8
:1043B000000FFFFFFFFFFFFFF3FFFFFFFFFFFFFF08
:1043C00000000FFFFFFC0000FFFFFFFFFFFFFFFFEC
:1043D000FFFFFFFFFF5557FFFFFFFFFFFFFF555791
:1043E000FFFFFFFFFFFFFFFFFFFFFFFC003FFFFF9F
:1043F000FFFFFFFFFFFFFFC03FFFFFFFFF0FFFFFBC
:10440000F0FFFFFD5FFFFFFFFFFFFFFFFFFFFFFF6D
:10441000FFFFFFFFC003FFFFFFFFFFFFC0000FFF15
:10442000FFF000003FFFFFFFFFFFFFFFFFFFFFFF69
:10443000FFFFFFFFFFFFFFFFFFFFFFFFFC0003FF8A
:10444000FFFFFFFD5FFFFFFFFFF00003FFFFFC002A
:1044500000FFFFFFFFFFFFFFFFFFFFFFFFFFFFFF6B
:10446000F00003FFFFFC0000FFFFFFFFFFFFFFFF67
:10447000FFFFFFFFFD555FFFFFFFFFFFFFFFD5556C
:10448000FFFFFFFFFFFFFFFFFFFFFFFC00FFFFFF3E
:10449000FFFFFFFFFFFFFF003FFFFFFFFF0FFFFFDB
:1044A000C0FFFFFD5FFFFFFFFFFFFFFFFFFFFFFFFD
:1044B000FFFFFFFFFFFFFFFFFFFFFFFF00003FFFCA
:1044C000FFFC00003FFFFFFFFFFFFFFFFFFFFFFFBD
:1044D000FFFFFFFFFFFFFFFFFFFFFFFFFFFFFFFFEC
:1044E000FFFFFFFD5FFFFFFFFFF00003FFFFC000C6
:1044F00003FFFFFFFFFFFFFFFFFFFFFFFFFFFFFFC8
:10450000FC00003FFFFC0000FFFFFFFFFFFFFFFF7D
:10451000FFFFFFFFF5557FFFFFFFFFFFFFFFF55593
:104520007FFFFFFFFFFFFFFFFFFFFFF000FFFFFF29
:10453000FFFFFFFFFFFFFC00FFFFFFFFFF03FFFF89
:10454000C0FFFFFD5FFFFFFFFFFFFFFFFFFFFFFF5C
:10455000FFFFFFFFFFFFFFFFFFFFFFFC0000FFFF6C
:10456000FFFF00003FFFFFFFFFFFFFFFFFFFFFFF19
:10457000FFFFFFFFFFFFFFFFFFFFFFFFFFFFFFFF4B
:10458000FFFFFFFD5FFFFFFFFFF00003FFFF0000E5
:104590000FFFFFFFFFFFFFFFFFFFFFFFFFFFFFFF1B
:1045A000FF00000FFFFC0000FFFFFFFFFFFFFFFF0A
:1045B000FFFFFFFFD555FFFFFFFFFFFFFFFFFD558B
:1045C0005FFFFFFFFFFFFFFFFFFFFFC000000000D6
:1045D000003FFFC3FFFFC003FFFFFFFFFFC0FFFF60
:1045E00003FFFFFD5FFFFFFFFFFFFFFFFFFFFFFF79
:1045F000FFFFFFFFFFFFFFFFFFFFFFFC0000FFFFCC
:10460000FFFF00003FFFFFFFFFFFFFFFFFFFFFFF78
:10461000FFFFFFFFFFFFFFFFFFFFFFFFFFFFFFFFAA
:10462000FFFFFFFD5FFFFFFFFFF00003FFFC000047
:104630003FFFFFFFFFFFFFFFFFFFFFFFFFFFFFFF4A
:10464000FFC00003FFFC0000FFFFFFFFFFFFFFFFB5
:10465000FFFFFFFF5557FFFFFFFD57FFFFFFFF5510
:104660005FFFFFFFFFFFFFFFFFFFFFC00000000035
:10467000003FFFC00000000FFFFFFFFFFFC0000072
:104680000FFFFFFD5FFFFFFFFFFFFFFFFFFFFFFFCC
:10469000FFFFFFFFFFFFFFFFFFFFFFFC0003FFFF28
:1046A000FFFF00003FFFFFFFFFFFFFFFFFFFFFFFD8
:1046B000FFFFFFFFFFFFFFFFFFFFFFFFFFFFFFFF0A
:1046C000FFFFFFFD5FFFFFFFFFF00003FFF00003B0
:1046D000FFFFFFFFFFFFFFFFFFFFFFFFFFFFFFFFEA
:1046E000FFFC0000FFFC0000FFFFFFFFFFFFFFFFDC
:1046F000FFFFFFFF555FFFFFFFFD55FFFFFFFFD5EA
:1047000057FFFFFFFFFFFFFFFFFFFFC0000000009C
:10471000003FFFC00000003FFFFFFFFFFFF0000071
:104720003FFFFFFD5FFFFFFFFFFFFFFFFFFFFFFFFB
:10473000FFFFFFFFFFFFFFFFFFFFFFFC0003FFFF87
:10474000FFFF00003FFFFFFFFFFFFFFFFFFFFFFF37
:10475000FFFFFFFFFFFFFFFFFFFFFFFFFFFFFFFF69
:10476000FFFFFFFD5FFFFFFFFFF00003FF00000FF3
:10477000FFFFFFFFFFFFFFFFFFFFFFFFFFFFFFFF49
:10478000FFFF00000FFC0000FFFFFFFFFFFFFFFF28
:10479000FFFFFFFF557FFFFFFFFD55FFFFFFFFF509
:1047A00057FFFFFFFFFFFFFFFFFFFFC000000000FC
:1047B000003FFFC0000000FFFFFFFFFFFFFF000002
:1047C000FFFFFFFD5FFFFFFFFFFFFFFFFFFFFFFF9B
:1047D000FFFFFFFFFFFFFFFFFFFFFFFC0000FFFFEA
:1047E000FFFC0000FFFFFFFFFFFFFFFFFFFFFFFFDA
:1047F000FFFFFFFFFFFFFFFFFFFFFFFFFFFFFFFFC9
:10480000FFFFFFFD5FFFFFFFFFF00003FC00003F25
:10481000FFFFFFFFFFFFFFFFFFFFFFFFFFFFFFFFA8
:10482000FFFFC00003FC0000FFFFFFFFFFFFFFFFD3
:10483000FFFFFFFF55FFFFFFFFFD55FFFFFFFFFDE0
:104840005FFFFFFFFFFFFFFFFFFFFFC00000000053
:10485000003FFFC000003FFFFFFFFFFFFFFFFFFF24
:10486000FFFFFFFD5FFFFFFFFFFFFFFFFFFFFFFFFA
:10487000FFFFFFFFFFFFFFFFFFFFFFFC00003FFF09
:10488000FFF00000FFFFFFFFFFFFFFFFFFFFFFFF45
:10489000FFFFFFFFFFFFFFFFFFFFFFFFFFFFFFFF28
:1048A000FFFFFFFD5FFFFFFFFFF00003F00000FFD1
:1048B000FFFFFFFFFFFFFFFFFFFFFFFFFFFFFFFF08
:1048C000FFFFF00000FC0000FFFFFFFFFFFFFFFF06
:1048D000FFFFFFFFFFFFFFFFFFFD55FFFFFFFFFF94
:1048E000FFFFFFFFFFFFFFFFFFFFFFFFFFFFFFFFD8
:1048F000FFFFFFFFFFFFFFFFFFFFFFFFFFFFFFFFC8
:10490000FFFFFFFD5FFFFFFFFFFFFFFFFFFFFFFF59
:10491000FFFFFFFFFFFFFFFFFFFFFFFC00000FFF98
:10492000FF000003FFFFFFFFFFFFFFFFFFFFFFFF91
:10493000FFFFFFFFFFFFFFFFFFFFFFFFFFFFFFFF87
:10494000FFFFFFFD5FFFFFFFFFF00003C00003FF5D
:10495000FFFFFFFFFFFFFFFFFFFFFFFFFFFFFFFF67
:10496000FFFFFC00003C0000FFFFFFFFFFFFFFFF19
:10497000FFFFFFFFFFFFFFFFFFFD55FFFFFFFFFFF3
:10498000FFFFFFFFFFFFFFFFFFFFFFFFFFFFFFFF37
:10499000FFFFFFFFFFFFFFFFFFFFFFFFFFFFFFFF27
:1049A000FFFFFFFD5FFFFFFFFFFFFFFFFFFFFFFFB9
:1049B000FFFFFFFFFFFFFFFFFFFFFFFF0000000003
:1049C00000000003FFFFFFFFFFFFFFFFFFFFFFFFF0
:1049D000FFFFFFFFFFFFFFFFFFFFFFFFFFFFFFFFE7
:1049E000FFFFFFFD5FFFFFFFFFF0000000003FFF44
:1049F000FFFFFFFFFFFFFFFFFFFFFFFFFFFFFFFFC7
:104A0000FFFFFFC000000000FFFFFFFFFFFFFFFFF1
:104A1000FFFFFFFFFFFFFFFFFFFD55FFFFFFFFFF52
:104A2000FFFFFFFFFFFFFFFFFFFFFFFFFFFFFFFF96
:104A3000FFFFFFFFFFFFFFFFFFFFFFFFFFFFFFFF86
:104A4000FFFFFFFD5FFFFFFFFFFFFFFFFFFFFFFF18
:104A5000FFFFFFFFFFFFFFFFFFFFFFFF0000000062
:104A60000000000FFFFFFFFFFFFFFFFFFFFFFFFF43
:104A7000FFFFFFFFFFFFFFFFFFFFFFFFFFFFFFFF46
:104A8000FFFFFFFD5FFFFFFFFFF000000000FFFFE3
:104A9000FFFFFFFFFFFFFFFFFFFFFFFFFFFFFFFF26
:104AA000FFFFFFF000000000FFFFFFFFFFFFFFFF21
:104AB000FFFFFFFFFFFFFFFFFFFD55FFFFFFFFFFB2
:104AC000FFFFFFFFFFFFFFFFFFFFFFFFFFFFFFFFF6
:104AD000FFFFFFFFFFFFFFFFFFFFFFFFFFFFFFFFE6
:104AE000FFFFFFFD5FFFFFFFFFFFFFFFFFFFFFFF78
:104AF000FFFFFFFFFFFFFFFFFFFFFFFFC000000002
:104B0000000000FFFFFFFFFFFFFFFFFFFFFFFFFFB2
:104B1000FFFFFFFFFFFFFFFFFFFFFFFFFFFFFFFFA5
:104B2000FFFFFFFD5FFFFFFFFFF000000003FFFF3F
:104B3000FFFFFFFFFFFFFFFFFFFFFFFFFFFFFFFF85
:104B4000FFFFFFFC00000000FFFFFFFFFFFFFFFF74
:104B5000FFFFFFFFFFFFFFFFFFFD55FFFFFFFFFF11
:104B6000FFFFFFFFFFFFFFFFFFFFFFFFFFFFFFFF55
:104B7000FFFFFFFFFFFFFFFFFFFFFFFFFFFFFFFF45
:104B8000FFFFFFFD5FFFFFFFFFFFFFFFFFFFFFFFD7
:104B9000FFFFFFFFFFFFFFFFFFFFFFFFFC00000025
:104BA000000003FFFFFFFFFFFFFFFFFFFFFFFFFF0F
:104BB000FFFFFFFFFFFFFFFFFFFFFFFFFFFFFFFF05
:104BC000FFFFFFFD5FFFFFFFFFF00000000FFFFF93
:104BD000FFFFFFFFFFFFFFFFFFFFFFFFFFFFFFFFE5
:104BE000FFFFFFFF00000000FFFFFFFFFFFFFFFFD1
:104BF000FFFFFFFFFFFFFFFFFFFD55FFFFFFFFFF71
:104C0000FFFFFFFFFFFFFFFFFFFFFFFFFFFFFFFFB4
:104C1000FFFFFFFFFFFFFFFFFFFFFFFFFFFFFFFFA4
:104C2000FFFFFFFD5FFFFFFFFFFFFFFFFFFFFFFF36
:104C3000FFFFFFFFFFFFFFFFFFFFFFFFFFC00000C1
:104C40000000FFFFFFFFFFFFFFFFFFFFFFFFFFFF72
:104C5000FFFFFFFFFFFFFFFFFFFFFFFFFFFFFFFF64
:104C6000FFFFFFFD5FFFFFFFFFF0000000000000FF
:104C70000000000000000000000000000000000034
:104C80000000000000000000FFFFFFFFFFFFFFFF2C
:104C9000FFFFFFFFFFFFFFFFFFFD55FFFFFFFFFFD0
:104CA000FFFFFFFFFFFFFFFFFFFFFFFFFFFFFFFF14
:104CB000FFFFFFFFFFFFFFFFFFFFFFFFFFFFFFFF04
:104CC000FFFFFFFD5FFFFFFFFFFFFFFFFFFFFFFF96
:104CD000FFFFFFFFFFFFFFFFFFFFFFFFFFFFF000F2
:104CE00000FFFFFFFFFFFFFFFFFFFFFFFFFFFFFFD3
:104CF000FFFFFFFFFFFFFFFFFFFFFFFFFFFFFFFFC4
:104D0000FFFFFFFD5FFFFFFFFFF00000000000005E
:104D10000000000000000000000000000000000093
:104D20000000000000000000FFFFFFFFFFFFFFFF8B
:104D3000FFFFFFFFFFFFFFFFFFFD55FFFFFFFFFF2F
:104D4000FFFFFFFFFFFFFFFFFFFFFFFFFFFFFFFF73
:104D5000FFFFFFFFFFFFFFFFFFFFFFFFFFFFFFFF63
:104D6000FFFFFFFD5FFFFFFFFFFFFFFFFFFFFFFFF5
:104D7000FFFFFFFFFFFFFFFFFFFFFFFFFFFFFFFF43
:104D8000FFFFFFFFFFFFFFFFFFFFFFFFFFFFFFFF33
:104D9000FFFFFFFFFFFFFFFFFFFFFFFFFFFFFFFF23
:104DA000FFFFFFFD5FFFFFFFFFF0000000000000BE
:104DB00000000000000000000000000000000000F3
:104DC0000000000000000000FFFFFFFFFFFFFFFFEB
:104DD000FFFFFFFFFFFFFFFFFFFD55FFFFFFFFFF8F
:104DE000FFFFFFFFFFFFFFFFFFFFFFFFFFFFFFFFD3
:104DF000FFFFFFFFFFFFFFFFFFFFFFFFFFFFFFFFC3
:104E0000FFFFFFFD5FFFFFFFFFFFFFFFFFFFFFFF54
:104E1000FFFFFFFFFFFFFFFFFFFFFFFFFFFFFFFFA2
:104E2000FFFFFFFFFFFFFFFFFFFFFFFFFFFFFFFF92
:104E3000FFFFFFFFFFFFFFFFFFFFFFFFFFFFFFFF82
:104E4000FFFFFFFD5FFFFFFFFFF00000000000001D
:104E50000000000000000000000000000000000052
:104E60000000000000000000FFFFFFFFFFFFFFFF4A
:104E7000FFFFFFFFFFFFFFFFFFFD57FFFFFFFFFFEC
:104E8000FFFFFFFFFFFFFFFFFFFFFFFFFFFFFFFF32
:104E9000FFFFFFFFFFFFFFFFFFFFFFFFFFFFFFFF22
:104EA000FFFFFFFD5FFFFFFFFFFFFFFFFFFFFFFFB4
:104EB000FFFFFFFFFFFFFFFFFFFFFFFFFFFFFFFF02
:104EC000FFFFFFFFFFFFFFFFFFFFFFFFFFFFFFFFF2
:104ED000FFFFFFFFFFFFFFFFFFFFFFFFFFFFFFFFE2
:104EE000FFFFFFFD5FFFFFFFFFF00000000000007D
:104EF00000000000000000000000000000000000B2
:104F00000000000000000000FFFFFFFFFFFFFFFFA9
:104F1000FFFFFFFFFFFFFFFFFFFFFFFFFFFFFFFFA1
:104F2000FFFFFFFFFFFFFFFFFFFFFFFFFFFFFFFF91
:104F3000FFFFFFFFFFFFFFFFFFFFFFFFFFFFFFFF81
:104F4000FFFFFFFD5FFFFFFFFFFFFFFFFFFFFFFF13
:104F5000FFFFFFFFFFFFFFFFFFFFFFFFFFFFFFFF61
:104F6000FFFFFFFFFFFFFFFFFFFFFFFFFFFFFFFF51
:104F7000FFFFFFFFFFFFFFFFFFFFFFFFFFFFFFFF41
:104F8000FFFFFFFD5FFFFFFFFFF0000000000000DC
:104F90000000000000000000000000000000000011
:104FA0000000000000000000FFFFFFFFFFFFFFFF09
:104FB000FFFFFFFFFFFFFFFFFFFFFFFFFFFFFFFF01
:104FC000FFFFFFFFFFFFFFFFFFFFFFFFFFFFFFFFF1
:104FD000FFFFFFFFFFFFFFFFFFFFFFFFFFFFFFFFE1
:104FE000FFFFFFFD5FFFFFFFFFFFFFFFFFFFFFFF73
:104FF000FFFFFFFFFFFFFFFFFFFFFFFFFFFFFFFFC1
:10500000FFFFFFFFFFFFFFFFFFFFFFFFFFFFFFFFB0
:10501000FFFFFFFFFFFFFFFFFFFFFFFFFFFFFFFFA0
:10502000FFFFFFFD5FFFFFFFFFFC0000000000002F
:105030000000000000000000000000000000000070
:105040000000000000000003FFFFFFFFFFFFFFFF65
:10505000FFFFFFFFFFFFFFFFFFFFFFFFFFFFFFFF60
:10506000FFFFFFFFFFFFFFFFFFFFFFFFFFFFFFFF50
:10507000FFFFFFFFFFFFFFFFFFFFFFFFFFFFFFFF40
:10508000FFFFFFFD5FFFFFFFFFFFFFFFFFFFFFFFD2
:10509000FFFFFFFFFFFFFFFFFFFFFFFFFFFFFFFF20
:1050A000FFFFFFFFFFFFFFFFFFFFFFFFFFFFFFFF10
:1050B000FFFFFFFFFFFFFFFFFFFFFFFFFFFFFFFF00
:1050C000FFFFFFFD5FFFFFFFFFFC0000000000008F
:1050D00000000000000000000000000000000000D0
:1050E0000000000000000003FFFFFFFFFFFFFFFFC5
:1050F000FFFFFFFFFFFFFFFFFFFFFFFFFFFFFFFFC0
:10510000FFFFFFFFFFFFFFFFFFFFFFFFFFFFFFFFAF
:10511000FFFFFFFFFFFFFFFFFFFFFFFFFFFFFFFF9F
:10512000FFFFFFFD5FFFFFFFFFFFFFFFFFFFFFFF31
:10513000FFFFFFFFFFFFFFFFFFFFFFFFFFFFFFFF7F
:10514000FFFFFFFFFFFFFFFFFFFFFFFFFFFFFFFF6F
:10515000FFFFFFFFFFFFFFFFFFFFFFFFFFFFFFFF5F
:10516000FFFFFFFD5FFFFFFFFFFFC000000000002B
:10517000000000000000000000000000000000002F
:10518000000000000000003FFFFFFFFFFFFFFFFFE8
:10519000FFFFFFFFFFFFFFFFFFFFFFFFFFFFFFFF1F
:1051A000FFFFFFFFFFFFFFFFFFFFFFFFFFFFFFFF0F
:1051B000FFFFFFFFFFFFFFFFFFFFFFFFFFFFFFFFFF
:1051C000FFFFFFFD5FFFFFFFFFFFFFFFFFFFFFFF91
:1051D000FFFFFFFFFFFFFFFFFFFFFFFFFFFFFFFFDF
:1051E000FFFFFFFFFFFFFFFFFFFFFFFFFFFFFFFFCF
:1051F000FFFFFFFFFFFFFFFFFFFFFFFFFFFFFFFFBF
:10520000FFFFFFFD5FFFFFFFFFFFFFFFFFFFFFFF50
:10521000FFFFFFFFFFFFFFFFFFFFFFFFFFFFFFFF9E
:10522000FFFFFFFFFFFFFFFFFFFFFFFFFFFFFFFF8E
:10523000FFFFFFFFFFFFFFFFFFFFFFFFFFFFFFFF7E
:10524000FFFFFFFFFFFFFFFFFFFFFFFFFFFFFFFF6E
:10525000FFFFFFFFFFFFFFFFFFFFFFFFFFFFFFFF5E
:10526000FFFFFFFD5FFFFFFFFFFFFFFFFFFFFFFFF0
:10527000FFFFFFFFFFFFFFFFFFFFFFFFFFFFFFFF3E
:10528000FFFFFFFFFFFFFFFFFFFFFFFFFFFFFFFF2E
:10529000FFFFFFFFFFFFFFFFFFFFFFFFFFFFFFFF1E
:1052A000FFFFFFFD5FFFFFFFFFFFFFFFFFFFFFFFB0
:1052B000FFFFFFFFFFFFFFFFFFFFFFFFFFFFFFFFFE
:1052C000FFFFFFFFFFFFFFFFFFFFFFFFFFFFFFFFEE
:1052D000FFFFFFFFFFFFFFFFFFFFFFFFFFFFFFFFDE
:1052E000FFFFFFFFFFFFFFFFFFFFFFFFFFFFFFFFCE
:1052F000FFFFFFFFFFFFFFFFFFFFFFFFFFFFFFFFBE
:10530000FFFFFFFD5FFFFFFFFFFFFFFFFFFFFFFF4F
:10531000FFFFFFFFFFFFFFFFFFFFFFFFFFFFFFFF9D
:10532000FFFFFFFFFFFFFFFFFFFFFFFFFFFFFFFF8D
:10533000FFFFFFFFFFFFFFFFFFFFFFFFFFFFFFFF7D
:10534000FFFFFFFD5FFFFFFFFFFFFFFFFFFFFFFF0F
:10535000FFFFFFFFFFFFFFFFFFFFFFFFFFFFFFFF5D
:10536000FFFFFFFFFFFFFFFFFFFFFFFFFFFFFFFF4D
:10537000FFFFFFFFFFFFFFFFFFFFFFFFFFFFFFFF3D
:10538000FFFFFFFFFFFFFFFFFFFFFFFFFFFFFFFF2D
:10539000FFFFFFFFFFFFFFFFFFFFFFFFFFFFFFFF1D
:1053A000FFFFFFFD5FFFFFFFFFFFFFFFFFFFFFFFAF
:1053B000FFFFFFFFFFFFFFFFFFFFFFFFFFFFFFFFFD
:1053C000FFFFFFFFFFFFFFFFFFFFFFFFFFFFFFFFED
:1053D000FFFFFFFFFFFFFFFFFFFFFFFFFFFFFFFFDD
:1053E000FFFFFFFD5FFFFFFFFFFFFFFFFFFFFFFF6F
:1053F000FFFFFFFFFFFFFFFFFFFFFFFFFFFFFFFFBD
:10540000FFFFFFFFFFFFFFFFFFFFFFFFFFFFFFFFAC
:10541000FFFFFFFFFFFFFFFFFFFFFFFFFFFFFFFF9C
:10542000FFFFFFFFFFFFFFFFFFFFFFFFFFFFFFFF8C
:10543000FFFFFFFFFFFFFFFFFFFFFFFFFFFFFFFF7C
:10544000FFFFFFFD5FFFFFFFFFFFFFFFFFFFFFFF0E
:10545000FFFFFFFFFFFFFFFFFFFFFFFFFFFFFFFF5C
:10546000FFFFFFFFFFFFFFFFFFFFFFFFFFFFFFFF4C
:10547000FFFFFFFFFFFFFFFFFFFFFFFFFFFFFFFF3C
:10548000FFFFFFFD5FFFFFFFFFFFFFFFFFFFFFFFCE
:10549000FFFFFFFFFFFFFFFFFFFFFFFFFFFFFFFF1C
:1054A000FFFFFFFFFFFFFFFFFFFFFFFFFFFFFFFF0C
:1054B000FFFFFFFFFFFFFFFFFFFFFFFFFFFFFFFFFC
:1054C000FFFFFFFFFFFFFFFFFFFFFFFFFFFFFFFFEC
:1054D000FFFFFFFFFFFFFFFFFFFFFFFFFFFFFFFFDC
:1054E000FFFFFFFD5FFFFFFFFFFFFFFFFFFFFFFF6E
:1054F000FFFFFFFFFFFFFFFFFFFFFFFFFFFFFFFFBC
:10550000FFFFFFFFFFFFFFFFFFFFFFFFFFFFFFFFAB
:10551000FFFFFFFFFFFFFFFFFFFFFFFFFFFFFFFF9B
:10552000FFFFFFFD5FFFFFFFFFFFFFFFFFFFFFFF2D
:10553000FFFFFFFFFFFFFFFFFFFFFFFFFFFFFFFF7B
:10554000FFFFFFFFFFFFFFFFFFFFFFFFFFFFFFFF6B
:10555000FFFFFFFFFFFFFFFFFFFFFFFFFFFFFFFF5B
:10556000FFFFFFFFFFFFFFFFFFFFFFFFFFFFFFFF4B
:10557000FFFFFFFFFFFFFFFFFFFFFFFFFFFFFFFF3B
:10558000FFFFFFFD5FFFFFFFFFFFFFFFFFFFFFFFCD
:10559000FFFFFFFFFFFFFFFFFFFFFFFFFFFFFFFF1B
:1055A000FFFFFFFFFFFFFFFFFFFFFFFFFFFFFFFF0B
:1055B000FFFFFFFFFFFFFFFFFFFFFFFFFFFFFFFFFB
:1055C000FFFFFFFD5FFFFFFFFFFFFFFFFFFFFFFF8D
:1055D000FFFFFFFFFFFFFFFFFFFFFFFFFFFFFFFFDB
:1055E000FFFFFFFFFFFFFFFFFFFFFFFFFFFFFFFFCB
:1055F000FFFFFFFFFFFFFFFFFFFFFFFFFFFFFFFFBB
:10560000FFFFFFFFFFFFFFFFFFFFFFFFFFFFFFFFAA
:10561000FFFFFFFFFFFFFFFFFFFFFFFFFFFFFFFF9A
:10562000FFFFFFFD5FFFFFFFFFFFFFFFFFFFFFFF2C
:10563000FFFFFFFFFFFFFFFFFFFFFFFFFFFFFFFF7A
:10564000FFFFFFFFFFFFFFFFFFFFFFFFFFFFFFFF6A
:10565000FFFFFFFFFFFFFFFFFFFFFFFFFFFFFFFF5A
:10566000FFFFFFFD5FFFFFFFFFFFFFFFFFFFFFFFEC
:10567000FFFFFFFFFFFFFFFFFFFFFFFFFFFFFFFF3A
:10568000FFFFFFFFFFFFFFFFFFFFFFFFFFFFFFFF2A
:10569000FFFFFFFFFFFFFFFFFFFFFFFFFFFFFFFF1A
:1056A000FFFFFFFFFFFFFFFFFFFFFFFFFFFFFFFF0A
:1056B000FFFFFFFFFFFFFFFFFFFFFFFFFFFFFFFFFA
:1056C000FFFFFFFD5FFFFFFFFFFFFFFFFFFFFFFF8C
:1056D000FFFFFFFFFFFFFFFFFFFFFFFFFFFFFFFFDA
:1056E000FFFFFFFFFFFFFFFFFFFFFFFFFFFFFFFFCA
:1056F000FFFFFFFFFFFFFFFFFFFFFFFFFFFFFFFFBA
:10570000FFFFFFFD5FFFFFFFFFFFFFFFFFFFFFFF4B
:10571000FFFFFFFFFFFFFFFFFFFFFFFFFFFFFFFF99
:10572000FFFFFFFFFFFFFFFFFFFFFFFFFFFFFFFF89
:10573000FFFFFFFFFFFFFFFFFFFFFFFFFFFFFFFF79
:10574000FFFFFFFFFFFFFFFFFFFFFFFFFFFFFFFF69
:10575000FFFFFFFFFFFFFFFFFFFFFFFFFFFFFFFF59
:10576000FFFFFFFD5FFFFFFFFFFFFFFFFFFFFFFFEB
:10577000FFFFFFFFFFFFFFFFFFFFFFFFFFFFFFFF39
:10578000FFFFFFFFFFFFFFFFFFFFFFFFFFFFFFFF29
:10579000FFFFFFFFFFFFFFFFFFFFFFFFFFFFFFFF19
:1057A000FFFFFFFD5FFFFFFFFFFFFFFFFFFFFFFFAB
:1057B000FFFFFFFFFFFFFFFFFFFFFFFFFFFFFFFFF9
:1057C000FFFFFFFFFFFFFFFFFFFFFFFF5555555591
:1057D0005555555555555555555555555555555579
:1057E0005555555555555555555555555555555569
:1057F0005555555555555555555555555555555559
:105800005555555555555555555555555555555548
:105A4000555555555555555555555555D555555586
:105A500055555555555555555555555555555555F6
:105A600055555555555555555555555555555555E6
:105A700055555555555555555555555555555555D6
:105A800055555555555555555555555555555555C6
:105A900055555555555555555555555555555555B6
:105AA00055555555555555555555555555555555A6
:105AB0005555555555555555555555555555555596
:105AC0005555555555555555555555555555555586
:105AD0005555555555555555555555555555555576
:105AE000555555555555555555555555FFFFFFFFBE
:105AF000FFFFFFFFFFFFFFFFFFFFFFFFFFFFFFFFB6
:105B0000FFFFFFFFFFFFFFFFFFFFFFFFFFFFFFFFA5
:105B1000FFFFFFFFFFFFFFFFFFFFFFFFFFFFFFFF95
:105B2000FFFFFFFFFFFFFFFFFFFFFFFFFFFFFFFF85
:1074A000FFFFFFFFFFFFFFFFFFFFFFFFFFFF0000EA
:1074B00003FFFFFFFFFFFFFFFFFFFFFFFFFFFFFFD8
:1074C000FFFFFFFFFFFFFFFFFFFFFFFFFFFFFFFFCC
:1074D000FFFFFFFFFFFFFFFFFFFFFFFFFFFFFFFFBC
:1074E000FFFFFFFFFFFFFFFFFFFFFFFFFFFFFFFFAC
:1074F000FFFFFFFFFFFFFFFFFFFFFFFFFFFFFFFF9C
:10750000FFFFFFFFFFFFFFFFFFFFFFFFFFFFFFFF8B
:10751000FFFFFFFFFFFFFFFFFFFFFFFFFFFFFFFF7B
:10752000FFFFFFFFFFFFFFFFFFFFFFFFFFFFFFFF6B
:10753000FFFFFFFFFFFFFFFFFFFFFFFFFFFFFFFF5B
:10754000FFFFFFFFFFFFFFFFFFFFFFFFFF00000048
:107550000003FFFFFFFFFFFFFFFFFFFFFFFFFFFF36
:10756000FFFFFFFFFFFFFFFFFFFFFFFFFFFFFFFF2B
:1075700000000003FFFFFFFFFFFFFFFFFFFFFFFF14
:10758000FFFFFFF0000003FFFFFFFFFFFFFFFFFF14
:10759000FFFFFFFFFFFFFFFFFFFFFFFFFFFFFFFFFB
:1075A000FFFFFFFFFFFFFFFFFFFFFFFFFFFFFFFFEB
:1075B000FFFFFFFFFFFFFFFFFFFFFFFFFFFFFFFFDB
:1075C000FFFFFFFFFFFFFFFFFFFFFFFFFFFFFFFFCB
:1075D000FFFFFFFFFFFFFFFFFFFFFFFC00000FFFAC
:1075E000FFFFFFFFFFFFFFFFFFFFFFFFC0000000E7
:1075F00000000FFFFFFFFFFFFFFFFFFFFFFFFFFF89
:10760000FFFFFFFFFFFFFFFFFFFFFFFFFFFFF00098
:107610000000000000FFFFFFFFFFFFFFFFFFFFFF75
:10762000FFFFF0000000000FFFFFFFFFFFFFFFFF65
:10763000FFFFFFFFFFFFFFFFFFFFFFFFFFFFFFFF5A
:10764000FFFFFFFFFFFFFFFFFFFFFFFFFFFFFFFF4A
:10765000FFFFFFFFFFFFFFFFFFFFFFFFFFFFFFFF3A
:10766000FFFFFFFFFFFFFFFFFFFFFFFFFFFFFFFF2A
:10767000FFFFFFFFFFFFFFFFFFFFFFC000000FFF47
